{"abi":[{"type":"constructor","inputs":[{"name":"vault","type":"address","internalType":"address"},{"name":"oracle","type":"address","internalType":"address"}],"stateMutability":"nonpayable"},{"type":"function","name":"POOL_INIT_CODE_HASH","inputs":[],"outputs":[{"name":"","type":"bytes32","internalType":"bytes32"}],"stateMutability":"view"},{"type":"function","name":"SIR_ORACLE","inputs":[],"outputs":[{"name":"","type":"address","internalType":"contract IOracle"}],"stateMutability":"view"},{"type":"function","name":"UNISWAP_V3_FACTORY","inputs":[],"outputs":[{"name":"","type":"address","internalType":"address"}],"stateMutability":"view"},{"type":"function","name":"VAULT","inputs":[],"outputs":[{"name":"","type":"address","internalType":"contract IVault"}],"stateMutability":"view"},{"type":"function","name":"getAddressAPE","inputs":[{"name":"vaultId","type":"uint48","internalType":"uint48"}],"outputs":[{"name":"","type":"address","internalType":"address"}],"stateMutability":"view"},{"type":"function","name":"getReserves","inputs":[{"name":"vaultIds","type":"uint48[]","internalType":"uint48[]"}],"outputs":[{"name":"reserves","type":"tuple[]","internalType":"struct SirStructs.Reserves[]","components":[{"name":"reserveApes","type":"uint144","internalType":"uint144"},{"name":"reserveLPers","type":"uint144","internalType":"uint144"},{"name":"tickPriceX42","type":"int64","internalType":"int64"}]}],"stateMutability":"view"},{"type":"function","name":"getUserBalances","inputs":[{"name":"user","type":"address","internalType":"address"},{"name":"offset","type":"uint256","internalType":"uint256"},{"name":"numVaults","type":"uint256","internalType":"uint256"}],"outputs":[{"name":"apeBalances","type":"uint256[]","internalType":"uint256[]"},{"name":"teaBalances","type":"uint256[]","internalType":"uint256[]"},{"name":"unclaimedSirRewards","type":"uint80[]","internalType":"uint80[]"}],"stateMutability":"view"},{"type":"function","name":"getVaultStatus","inputs":[{"name":"vaultParams","type":"tuple","internalType":"struct SirStructs.VaultParameters","components":[{"name":"debtToken","type":"address","internalType":"address"},{"name":"collateralToken","type":"address","internalType":"address"},{"name":"leverageTier","type":"int8","internalType":"int8"}]}],"outputs":[{"name":"","type":"uint8","internalType":"enum Assistant.VaultStatus"}],"stateMutability":"view"},{"type":"function","name":"priceOfAPE","inputs":[{"name":"vaultParams","type":"tuple","internalType":"struct SirStructs.VaultParameters","components":[{"name":"debtToken","type":"address","internalType":"address"},{"name":"collateralToken","type":"address","internalType":"address"},{"name":"leverageTier","type":"int8","internalType":"int8"}]}],"outputs":[{"name":"num","type":"uint256","internalType":"uint256"},{"name":"den","type":"uint256","internalType":"uint256"}],"stateMutability":"view"},{"type":"function","name":"priceOfTEA","inputs":[{"name":"vaultParams","type":"tuple","internalType":"struct SirStructs.VaultParameters","components":[{"name":"debtToken","type":"address","internalType":"address"},{"name":"collateralToken","type":"address","internalType":"address"},{"name":"leverageTier","type":"int8","internalType":"int8"}]}],"outputs":[{"name":"num","type":"uint256","internalType":"uint256"},{"name":"den","type":"uint256","internalType":"uint256"}],"stateMutability":"view"},{"type":"function","name":"quoteBurn","inputs":[{"name":"isAPE","type":"bool","internalType":"bool"},{"name":"vaultParams","type":"tuple","internalType":"struct SirStructs.VaultParameters","components":[{"name":"debtToken","type":"address","internalType":"address"},{"name":"collateralToken","type":"address","internalType":"address"},{"name":"leverageTier","type":"int8","internalType":"int8"}]},{"name":"amountTokens","type":"uint256","internalType":"uint256"}],"outputs":[{"name":"amountCollateral","type":"uint144","internalType":"uint144"},{"name":"amountDebtToken","type":"uint256","internalType":"uint256"}],"stateMutability":"view"},{"type":"function","name":"quoteCollateralToDebtToken","inputs":[{"name":"debtToken","type":"address","internalType":"address"},{"name":"collateralToken","type":"address","internalType":"address"},{"name":"amountCollateral","type":"uint256","internalType":"uint256"}],"outputs":[{"name":"amountDebtToken","type":"uint256","internalType":"uint256"}],"stateMutability":"view"},{"type":"function","name":"quoteMint","inputs":[{"name":"isAPE","type":"bool","internalType":"bool"},{"name":"vaultParams","type":"tuple","internalType":"struct SirStructs.VaultParameters","components":[{"name":"debtToken","type":"address","internalType":"address"},{"name":"collateralToken","type":"address","internalType":"address"},{"name":"leverageTier","type":"int8","internalType":"int8"}]},{"name":"amountCollateral","type":"uint144","internalType":"uint144"}],"outputs":[{"name":"amountTokens","type":"uint256","internalType":"uint256"}],"stateMutability":"view"},{"type":"function","name":"quoteMintWithDebtToken","inputs":[{"name":"isAPE","type":"bool","internalType":"bool"},{"name":"vaultParams","type":"tuple","internalType":"struct SirStructs.VaultParameters","components":[{"name":"debtToken","type":"address","internalType":"address"},{"name":"collateralToken","type":"address","internalType":"address"},{"name":"leverageTier","type":"int8","internalType":"int8"}]},{"name":"amountDebtToken","type":"uint256","internalType":"uint256"}],"outputs":[{"name":"amountTokens","type":"uint256","internalType":"uint256"},{"name":"amountCollateral","type":"uint256","internalType":"uint256"},{"name":"amountCollateralIdeal","type":"uint256","internalType":"uint256"}],"stateMutability":"view"},{"type":"error","name":"AmountTooLow","inputs":[]},{"type":"error","name":"T","inputs":[]},{"type":"error","name":"TEAMaxSupplyExceeded","inputs":[]},{"type":"error","name":"TooMuchCollateral","inputs":[]},{"type":"error","name":"VaultDoesNotExist","inputs":[]}],"bytecode":{"object":"0x610100604052348015610010575f5ffd5b506040516182c13803806182c183398181016040528101906100329190610217565b8073ffffffffffffffffffffffffffffffffffffffff1663e2d4624d6040518163ffffffff1660e01b8152600401602060405180830381865afa15801561007b573d5f5f3e3d5ffd5b505050506040513d601f19601f8201168201806040525081019061009f9190610255565b8173ffffffffffffffffffffffffffffffffffffffff1663dc6fd8ab6040518163ffffffff1660e01b8152600401602060405180830381865afa1580156100e8573d5f5f3e3d5ffd5b505050506040513d601f19601f8201168201806040525081019061010c91906102b3565b8173ffffffffffffffffffffffffffffffffffffffff1660808173ffffffffffffffffffffffffffffffffffffffff16815250508060a0818152505050508173ffffffffffffffffffffffffffffffffffffffff1660c08173ffffffffffffffffffffffffffffffffffffffff16815250508073ffffffffffffffffffffffffffffffffffffffff1660e08173ffffffffffffffffffffffffffffffffffffffff168152505050506102de565b5f5ffd5b5f73ffffffffffffffffffffffffffffffffffffffff82169050919050565b5f6101e6826101bd565b9050919050565b6101f6816101dc565b8114610200575f5ffd5b50565b5f81519050610211816101ed565b92915050565b5f5f6040838503121561022d5761022c6101b9565b5b5f61023a85828601610203565b925050602061024b85828601610203565b9150509250929050565b5f6020828403121561026a576102696101b9565b5b5f61027784828501610203565b91505092915050565b5f819050919050565b61029281610280565b811461029c575f5ffd5b50565b5f815190506102ad81610289565b92915050565b5f602082840312156102c8576102c76101b9565b5b5f6102d58482850161029f565b91505092915050565b60805160a05160c05160e051617ee56103dc5f395f818161072801528181610a7301528181610c2401528181611e3b0152612aa201525f818161066201528181610f7201528181610f990152818161104f015281816110e9015281816111910152818161122c015281816112fb01528181611525015281816115fc015281816116cb015281816117d5015281816119020152818161199d01528181611b7401528181611e0501528181611ed201528181611f93015281816120610152818161217a015281816122c0015261238101525f818161249401528181612530015261348c01525f81816124b8015281816124e101526134600152617ee55ff3fe608060405234801561000f575f5ffd5b50600436106100e8575f3560e01c80637ef3090a1161008a578063a0193ec411610064578063a0193ec4146102ae578063a4e59a9f146102de578063dc6fd8ab1461030f578063f73e5aab1461032d576100e8565b80637ef3090a146102305780638d0f7844146102605780639e1cd98914610290576100e8565b8063411557d1116100c6578063411557d11461017e57806358676d0c1461019c57806358c6bdbd146101cd5780637b6127fa146101fe576100e8565b8063049354b9146100ec5780632f3ccd421461011c57806337961f8d1461014c575b5f5ffd5b61010660048036038101906101019190615b8d565b61034b565b6040516101139190615c2b565b60405180910390f35b61013660048036038101906101319190615cd1565b610724565b6040516101439190615d30565b60405180910390f35b61016660048036038101906101619190615d7e565b610a34565b60405161017593929190615dce565b60405180910390f35b610186610f70565b6040516101939190615e5e565b60405180910390f35b6101b660048036038101906101b19190615b8d565b610f94565b6040516101c4929190615e77565b60405180910390f35b6101e760048036038101906101e29190615b8d565b61118c565b6040516101f5929190615e77565b60405180910390f35b61021860048036038101906102139190615e9e565b611416565b60405161022793929190616071565b60405180910390f35b61024a60048036038101906102459190616102565b6117d1565b6040516102579190615d30565b60405180910390f35b61027a6004803603810190610275919061618d565b611dff565b60405161028791906161c7565b60405180910390f35b610298611e39565b6040516102a59190616200565b60405180910390f35b6102c860048036038101906102c3919061627a565b611e5d565b6040516102d591906163d7565b60405180910390f35b6102f860048036038101906102f39190615d7e565b61205c565b604051610306929190616406565b60405180910390f35b610317612492565b6040516103249190616445565b60405180910390f35b6103356124b6565b60405161034291906161c7565b60405180910390f35b5f5f826020016020810190610360919061645e565b73ffffffffffffffffffffffffffffffffffffffff163b03610384575f905061071f565b5f825f016020810190610397919061645e565b73ffffffffffffffffffffffffffffffffffffffff163b036103bb575f905061071f565b5f8260200160208101906103cf919061645e565b73ffffffffffffffffffffffffffffffffffffffff166318160ddd60e01b604051602401604051602081830303815290604052907bffffffffffffffffffffffffffffffffffffffffffffffffffffffff19166020820180517bffffffffffffffffffffffffffffffffffffffffffffffffffffffff838183161783525050505060405161045d91906164db565b5f60405180830381855afa9150503d805f8114610495576040519150601f19603f3d011682016040523d82523d5f602084013e61049a565b606091505b50509050806104ac575f91505061071f565b825f0160208101906104be919061645e565b73ffffffffffffffffffffffffffffffffffffffff166318160ddd60e01b604051602401604051602081830303815290604052907bffffffffffffffffffffffffffffffffffffffffffffffffffffffff19166020820180517bffffffffffffffffffffffffffffffffffffffffffffffffffffffff838183161783525050505060405161054c91906164db565b5f60405180830381855afa9150503d805f8114610584576040519150601f19603f3d011682016040523d82523d5f602084013e610589565b606091505b5050809150508061059d575f91505061071f565b7ffffffffffffffffffffffffffffffffffffffffffffffffffffffffffffffffc5f0b8360400160208101906105d39190616526565b5f0b12806105f7575060025f0b8360400160208101906105f39190616526565b5f0b135b15610605575f91505061071f565b6106108360646124da565b1580156106265750610624836101f46124da565b155b801561063b575061063983610bb86124da565b155b8015610650575061064e836127106124da565b155b1561065f57600191505061071f565b5f7f000000000000000000000000000000000000000000000000000000000000000073ffffffffffffffffffffffffffffffffffffffff16632edf3104856040518263ffffffff1660e01b81526004016106b991906165f3565b606060405180830381865afa1580156106d4573d5f5f3e3d5ffd5b505050506040513d601f19601f820116820180604052508101906106f8919061674b565b90505f816040015165ffffffffffff16036107185760029250505061071f565b6003925050505b919050565b5f5f7f000000000000000000000000000000000000000000000000000000000000000073ffffffffffffffffffffffffffffffffffffffff1663f3209e0086866040518363ffffffff1660e01b8152600401610781929190616776565b602060405180830381865afa15801561079c573d5f5f3e3d5ffd5b505050506040513d601f19601f820116820180604052508101906107c091906167b1565b90505f8173ffffffffffffffffffffffffffffffffffffffff16633850c7bd6040518163ffffffff1660e01b815260040160e060405180830381865afa15801561080c573d5f5f3e3d5ffd5b505050506040513d601f19601f8201168201806040525081019061083091906168bd565b50505050505090505f8273ffffffffffffffffffffffffffffffffffffffff1663d21220a76040518163ffffffff1660e01b8152600401602060405180830381865afa158015610882573d5f5f3e3d5ffd5b505050506040513d601f19601f820116820180604052508101906108a691906167b1565b73ffffffffffffffffffffffffffffffffffffffff168673ffffffffffffffffffffffffffffffffffffffff161490506fffffffffffffffffffffffffffffffff80168273ffffffffffffffffffffffffffffffffffffffff161161099f575f8273ffffffffffffffffffffffffffffffffffffffff168373ffffffffffffffffffffffffffffffffffffffff1661093e9190616987565b9050811561096f5761096a78010000000000000000000000000000000000000000000000008783612575565b610994565b61099381877801000000000000000000000000000000000000000000000000612575565b5b945050505050610a2d565b5f6109e08373ffffffffffffffffffffffffffffffffffffffff168473ffffffffffffffffffffffffffffffffffffffff1668010000000000000000612575565b90508115610a0957610a047001000000000000000000000000000000008783612575565b610a26565b610a258187700100000000000000000000000000000000612575565b5b9450505050505b9392505050565b5f5f5f5f8403610a70576040517f1fbaba3500000000000000000000000000000000000000000000000000000000815260040160405180910390fd5b5f7f000000000000000000000000000000000000000000000000000000000000000073ffffffffffffffffffffffffffffffffffffffff1663c7dd5c0a875f016020810190610abf919061645e565b886020016020810190610ad2919061645e565b6040518363ffffffff1660e01b8152600401610aef929190616776565b602060405180830381865afa158015610b0a573d5f5f3e3d5ffd5b505050506040513d601f19601f82011682018060405250810190610b2e9190616a00565b9050610bc96040518060a00160405280885f016020810190610b50919061645e565b73ffffffffffffffffffffffffffffffffffffffff168152602001886020016020810190610b7e919061645e565b73ffffffffffffffffffffffffffffffffffffffff1681526020018781526020018362ffffff1681526020015f73ffffffffffffffffffffffffffffffffffffffff16815250612666565b9091509050508093505071ffffffffffffffffffffffffffffffffffff8016831115610c21576040517f5baa913500000000000000000000000000000000000000000000000000000000815260040160405180910390fd5b5f7f000000000000000000000000000000000000000000000000000000000000000073ffffffffffffffffffffffffffffffffffffffff1663f3209e00885f016020810190610c70919061645e565b896020016020810190610c83919061645e565b6040518363ffffffff1660e01b8152600401610ca0929190616776565b602060405180830381865afa158015610cbb573d5f5f3e3d5ffd5b505050506040513d601f19601f82011682018060405250810190610cdf91906167b1565b90505f8173ffffffffffffffffffffffffffffffffffffffff16633850c7bd6040518163ffffffff1660e01b815260040160e060405180830381865afa158015610d2b573d5f5f3e3d5ffd5b505050506040513d601f19601f82011682018060405250810190610d4f91906168bd565b50505050505090505f8273ffffffffffffffffffffffffffffffffffffffff1663d21220a76040518163ffffffff1660e01b8152600401602060405180830381865afa158015610da1573d5f5f3e3d5ffd5b505050506040513d601f19601f82011682018060405250810190610dc591906167b1565b73ffffffffffffffffffffffffffffffffffffffff16896020016020810190610dee919061645e565b73ffffffffffffffffffffffffffffffffffffffff161490506fffffffffffffffffffffffffffffffff80168273ffffffffffffffffffffffffffffffffffffffff1611610ecc575f8273ffffffffffffffffffffffffffffffffffffffff168373ffffffffffffffffffffffffffffffffffffffff16610e6f9190616987565b905081610e9f57610e9a78010000000000000000000000000000000000000000000000008a83612575565b610ec4565b610ec3818a7801000000000000000000000000000000000000000000000000612575565b5b955050610f56565b5f610f0d8373ffffffffffffffffffffffffffffffffffffffff168473ffffffffffffffffffffffffffffffffffffffff1668010000000000000000612575565b905081610f3557610f307001000000000000000000000000000000008a83612575565b610f52565b610f51818a700100000000000000000000000000000000612575565b5b9550505b610f618a8a886117d1565b96505050505093509350939050565b7f000000000000000000000000000000000000000000000000000000000000000081565b5f5f5f7f000000000000000000000000000000000000000000000000000000000000000073ffffffffffffffffffffffffffffffffffffffff1663fbd98edf856040518263ffffffff1660e01b8152600401610ff091906165f3565b606060405180830381865afa15801561100b573d5f5f3e3d5ffd5b505050506040513d601f19601f8201168201806040525081019061102f9190616a8c565b9050806020015171ffffffffffffffffffffffffffffffffffff1692505f7f000000000000000000000000000000000000000000000000000000000000000073ffffffffffffffffffffffffffffffffffffffff16632edf3104866040518263ffffffff1660e01b81526004016110a691906165f3565b606060405180830381865afa1580156110c1573d5f5f3e3d5ffd5b505050506040513d601f19601f820116820180604052508101906110e5919061674b565b90507f000000000000000000000000000000000000000000000000000000000000000073ffffffffffffffffffffffffffffffffffffffff1663bd85b03982604001516040518263ffffffff1660e01b81526004016111449190616ae7565b602060405180830381865afa15801561115f573d5f5f3e3d5ffd5b505050506040513d601f19601f820116820180604052508101906111839190616b14565b92505050915091565b5f5f5f7f000000000000000000000000000000000000000000000000000000000000000073ffffffffffffffffffffffffffffffffffffffff1663fbd98edf856040518263ffffffff1660e01b81526004016111e891906165f3565b606060405180830381865afa158015611203573d5f5f3e3d5ffd5b505050506040513d601f19601f820116820180604052508101906112279190616a8c565b90505f7f000000000000000000000000000000000000000000000000000000000000000073ffffffffffffffffffffffffffffffffffffffff1663458e8e6b6040518163ffffffff1660e01b815260040161010060405180830381865afa158015611294573d5f5f3e3d5ffd5b505050506040513d601f19601f820116820180604052508101906112b89190616c50565b90506112e2825f0151825f01515f01518760400160208101906112db9190616526565b5f0b61273e565b71ffffffffffffffffffffffffffffffffffff1693505f7f000000000000000000000000000000000000000000000000000000000000000073ffffffffffffffffffffffffffffffffffffffff16632edf3104876040518263ffffffff1660e01b815260040161135291906165f3565b606060405180830381865afa15801561136d573d5f5f3e3d5ffd5b505050506040513d601f19601f82011682018060405250810190611391919061674b565b90506113a08160400151611dff565b73ffffffffffffffffffffffffffffffffffffffff166318160ddd6040518163ffffffff1660e01b8152600401602060405180830381865afa1580156113e8573d5f5f3e3d5ffd5b505050506040513d601f19601f8201168201806040525081019061140c9190616b14565b9350505050915091565b60608060605f8467ffffffffffffffff81111561143657611435616620565b5b6040519080825280602002602001820160405280156114645781602001602082028036833780820191505090505b5093508467ffffffffffffffff81111561148157611480616620565b5b6040519080825280602002602001820160405280156114af5781602001602082028036833780820191505090505b5092508467ffffffffffffffff8111156114cc576114cb616620565b5b6040519080825280602002602001820160405280156114fa5781602001602082028036833780820191505090505b5091505f60018761150b9190616c7c565b90505b858761151a9190616c7c565b81116117c65761154a7f0000000000000000000000000000000000000000000000000000000000000000826127ab565b91508173ffffffffffffffffffffffffffffffffffffffff166370a08231896040518263ffffffff1660e01b815260040161158591906161c7565b602060405180830381865afa1580156115a0573d5f5f3e3d5ffd5b505050506040513d601f19601f820116820180604052508101906115c49190616b14565b85600189846115d39190616caf565b6115dd9190616caf565b815181106115ee576115ed616ce2565b5b6020026020010181815250507f000000000000000000000000000000000000000000000000000000000000000073ffffffffffffffffffffffffffffffffffffffff1662fdd58e89836040518363ffffffff1660e01b8152600401611654929190616d0f565b602060405180830381865afa15801561166f573d5f5f3e3d5ffd5b505050506040513d601f19601f820116820180604052508101906116939190616b14565b84600189846116a29190616caf565b6116ac9190616caf565b815181106116bd576116bc616ce2565b5b6020026020010181815250507f000000000000000000000000000000000000000000000000000000000000000073ffffffffffffffffffffffffffffffffffffffff166346f90748828a6040518363ffffffff1660e01b8152600401611724929190616d36565b602060405180830381865afa15801561173f573d5f5f3e3d5ffd5b505050506040513d601f19601f820116820180604052508101906117639190616d87565b83600189846117729190616caf565b61177c9190616caf565b8151811061178d5761178c616ce2565b5b602002602001019069ffffffffffffffffffff16908169ffffffffffffffffffff168152505080806117be90616db2565b91505061150e565b505093509350939050565b5f5f7f000000000000000000000000000000000000000000000000000000000000000073ffffffffffffffffffffffffffffffffffffffff16632edf3104856040518263ffffffff1660e01b815260040161182c91906165f3565b606060405180830381865afa158015611847573d5f5f3e3d5ffd5b505050506040513d601f19601f8201168201806040525081019061186b919061674b565b90505f816040015165ffffffffffff16036118b2576040517f4d827f1700000000000000000000000000000000000000000000000000000000815260040160405180910390fd5b5f8371ffffffffffffffffffffffffffffffffffff16036118ff576040517f1fbaba3500000000000000000000000000000000000000000000000000000000815260040160405180910390fd5b5f7f000000000000000000000000000000000000000000000000000000000000000073ffffffffffffffffffffffffffffffffffffffff1663fbd98edf866040518263ffffffff1660e01b815260040161195991906165f3565b606060405180830381865afa158015611974573d5f5f3e3d5ffd5b505050506040513d601f19601f820116820180604052508101906119989190616a8c565b90505f7f000000000000000000000000000000000000000000000000000000000000000073ffffffffffffffffffffffffffffffffffffffff1663458e8e6b6040518163ffffffff1660e01b815260040161010060405180830381865afa158015611a05573d5f5f3e3d5ffd5b505050506040513d601f19601f82011682018060405250810190611a299190616c50565b90508615611b49575f611a5786835f01515f0151896040016020810190611a509190616526565b5f0b61273e565b71ffffffffffffffffffffffffffffffffffff1690505f611a7b8560400151611dff565b90505f8173ffffffffffffffffffffffffffffffffffffffff166318160ddd6040518163ffffffff1660e01b8152600401602060405180830381865afa158015611ac7573d5f5f3e3d5ffd5b505050506040513d601f19601f82011682018060405250810190611aeb9190616b14565b90505f8114611b1b57611b168184875f015171ffffffffffffffffffffffffffffffffffff16612575565b611b3f565b845f015171ffffffffffffffffffffffffffffffffffff1683611b3e9190616c7c565b5b9650505050611dbc565b5f611b5b8683602001515f0151612819565b71ffffffffffffffffffffffffffffffffffff1690505f7f000000000000000000000000000000000000000000000000000000000000000073ffffffffffffffffffffffffffffffffffffffff1663bd85b03986604001516040518263ffffffff1660e01b8152600401611bcf9190616ae7565b602060405180830381865afa158015611bea573d5f5f3e3d5ffd5b505050506040513d601f19601f82011682018060405250810190611c0e9190616b14565b90505f8114611c5357611c4e818871ffffffffffffffffffffffffffffffffffff16866020015171ffffffffffffffffffffffffffffffffffff16612575565b611c7f565b611c7e886020016020810190611c69919061645e565b856020015189611c799190616df9565b61285d565b5b95508061ffff8016606067016345785d8a000060016301e133806001600c600a611ca99190616f6d565b63781a75c0611cb89190616987565b611cc29190616caf565b611ccc9190616ff8565b611cd69190617028565b68ffffffffffffffffff1666f8b0a10e470000611cf39190616987565b611cfd9190617064565b68ffffffffffffffffff166fffffffffffffffffffffffffffffffff16901b611d2691906170af565b6fffffffffffffffffffffffffffffffff16611d429190616caf565b861115611d7b576040517f6deac20700000000000000000000000000000000000000000000000000000000815260040160405180910390fd5b611db786835f8414611d8d5789611d9e565b86602001518a611d9d9190616df9565b5b71ffffffffffffffffffffffffffffffffffff16612575565b955050505b5f8403611df5576040517f1fbaba3500000000000000000000000000000000000000000000000000000000815260040160405180910390fd5b5050509392505050565b5f611e327f00000000000000000000000000000000000000000000000000000000000000008365ffffffffffff166127ab565b9050919050565b7f000000000000000000000000000000000000000000000000000000000000000081565b60608282905067ffffffffffffffff811115611e7c57611e7b616620565b5b604051908082528060200260200182016040528015611eb557816020015b611ea2615986565b815260200190600190039081611e9a5790505b509050611ec06159cf565b5f5f90505b84849050811015612054577f000000000000000000000000000000000000000000000000000000000000000073ffffffffffffffffffffffffffffffffffffffff1663d2f3fd09868684818110611f1f57611f1e616ce2565b5b9050602002016020810190611f34919061618d565b6040518263ffffffff1660e01b8152600401611f5091906170ee565b606060405180830381865afa158015611f6b573d5f5f3e3d5ffd5b505050506040513d601f19601f82011682018060405250810190611f8f919061717c565b91507f000000000000000000000000000000000000000000000000000000000000000073ffffffffffffffffffffffffffffffffffffffff1663fbd98edf836040518263ffffffff1660e01b8152600401611fea91906171e7565b606060405180830381865afa158015612005573d5f5f3e3d5ffd5b505050506040513d601f19601f820116820180604052508101906120299190616a8c565b83828151811061203c5761203b616ce2565b5b60200260200101819052508080600101915050611ec5565b505092915050565b5f5f5f7f000000000000000000000000000000000000000000000000000000000000000073ffffffffffffffffffffffffffffffffffffffff16632edf3104866040518263ffffffff1660e01b81526004016120b891906165f3565b606060405180830381865afa1580156120d3573d5f5f3e3d5ffd5b505050506040513d601f19601f820116820180604052508101906120f7919061674b565b90505f816040015165ffffffffffff160361213e576040517f4d827f1700000000000000000000000000000000000000000000000000000000815260040160405180910390fd5b5f8403612177576040517f1fbaba3500000000000000000000000000000000000000000000000000000000815260040160405180910390fd5b5f7f000000000000000000000000000000000000000000000000000000000000000073ffffffffffffffffffffffffffffffffffffffff1663fbd98edf876040518263ffffffff1660e01b81526004016121d191906165f3565b606060405180830381865afa1580156121ec573d5f5f3e3d5ffd5b505050506040513d601f19601f820116820180604052508101906122109190616a8c565b9050861561237e575f6122268360400151611dff565b90505f8173ffffffffffffffffffffffffffffffffffffffff166318160ddd6040518163ffffffff1660e01b8152600401602060405180830381865afa158015612272573d5f5f3e3d5ffd5b505050506040513d601f19601f820116820180604052508101906122969190616b14565b90505f6122bb845f015171ffffffffffffffffffffffffffffffffffff168984612575565b90505f7f000000000000000000000000000000000000000000000000000000000000000073ffffffffffffffffffffffffffffffffffffffff1663458e8e6b6040518163ffffffff1660e01b815260040161010060405180830381865afa158015612328573d5f5f3e3d5ffd5b505050506040513d601f19601f8201168201806040525081019061234c9190616c50565b905061237382825f01515f01518c604001602081019061236c9190616526565b5f0b61273e565b975050505050612444565b5f7f000000000000000000000000000000000000000000000000000000000000000073ffffffffffffffffffffffffffffffffffffffff1663bd85b03984604001516040518263ffffffff1660e01b81526004016123dc9190616ae7565b602060405180830381865afa1580156123f7573d5f5f3e3d5ffd5b505050506040513d601f19601f8201168201806040525081019061241b9190616b14565b9050612440826020015171ffffffffffffffffffffffffffffffffffff168783612575565b9450505b61248686602001602081019061245a919061645e565b875f01602081019061246c919061645e565b8671ffffffffffffffffffffffffffffffffffff16612a9e565b92505050935093915050565b7f000000000000000000000000000000000000000000000000000000000000000081565b7f000000000000000000000000000000000000000000000000000000000000000081565b5f5f6125547f000000000000000000000000000000000000000000000000000000000000000061252e866020016020810190612516919061645e565b875f016020810190612528919061645e565b87613314565b7f00000000000000000000000000000000000000000000000000000000000000006133b0565b73ffffffffffffffffffffffffffffffffffffffff163b1415905092915050565b5f5f5f5f198587098587029250828110838203039150505f81036125aa575f841161259e575f5ffd5b8382049250505061265f565b8084116125b5575f5ffd5b5f8486880990508281118203915080830392505f856001877fffffffffffffffffffffffffffffffffffffffffffffffffffffffffffffffff030116905080860495508084049350600181825f0304019050808302841793505f600287600302189050808702600203810290508087026002038102905080870260020381029050808702600203810290508087026002038102905080870260020381029050808502955050505050505b9392505050565b5f5f5f5f5f612681865f01518760200151886060015161345a565b90505f6040518060c00160405280885f015173ffffffffffffffffffffffffffffffffffffffff168152602001886020015173ffffffffffffffffffffffffffffffffffffffff168152602001886040015181526020018373ffffffffffffffffffffffffffffffffffffffff168152602001886060015162ffffff1681526020015f73ffffffffffffffffffffffffffffffffffffffff168152509050612728816134b9565b5080965081975082985050505050509193509193565b5f5f5f5f8412612760576127109150838561ffff16901b612710019050612779565b5f845f03612710901b90508092508561ffff1681019150505b80828771ffffffffffffffffffffffffffffffffffff16028161279f5761279e616fcb565b5b04925050509392505050565b5f604051835f5260ff600b53826020527f21c35dbe1b344a2488cf3321d6ce542f8e9f305544ff09e4993a62319a497c1f6040526055600b206014528060405261d6945f52600160345373ffffffffffffffffffffffffffffffffffffffff6017601e201691505092915050565b5f5f61271090505f8361ffff1661271001905080828671ffffffffffffffffffffffffffffffffffff16028161285257612851616fcb565b5b049250505092915050565b5f5f8373ffffffffffffffffffffffffffffffffffffffff166318160ddd6040518163ffffffff1660e01b8152600401602060405180830381865afa1580156128a8573d5f5f3e3d5ffd5b505050506040513d601f19601f820116820180604052508101906128cc9190616b14565b9050620f424061ffff8016606067016345785d8a000060016301e133806001600c600a6128f99190616f6d565b63781a75c06129089190616987565b6129129190616caf565b61291c9190616ff8565b6129269190617028565b68ffffffffffffffffff1666f8b0a10e4700006129439190616987565b61294d9190617064565b68ffffffffffffffffff166fffffffffffffffffffffffffffffffff16901b61297691906170af565b61298091906170af565b6fffffffffffffffffffffffffffffffff1681116129c057620f4240836129a79190617200565b71ffffffffffffffffffffffffffffffffffff16612a95565b612a9461ffff8016606067016345785d8a000060016301e133806001600c600a6129ea9190616f6d565b63781a75c06129f99190616987565b612a039190616caf565b612a0d9190616ff8565b612a179190617028565b68ffffffffffffffffff1666f8b0a10e470000612a349190616987565b612a3e9190617064565b68ffffffffffffffffff166fffffffffffffffffffffffffffffffff16901b612a6791906170af565b6fffffffffffffffffffffffffffffffff168471ffffffffffffffffffffffffffffffffffff1683612575565b5b91505092915050565b5f5f7f000000000000000000000000000000000000000000000000000000000000000073ffffffffffffffffffffffffffffffffffffffff1663f3209e0086866040518363ffffffff1660e01b8152600401612afb929190616776565b602060405180830381865afa158015612b16573d5f5f3e3d5ffd5b505050506040513d601f19601f82011682018060405250810190612b3a91906167b1565b90505f8190505f600267ffffffffffffffff811115612b5c57612b5b616620565b5b604051908082528060200260200182016040528015612b8a5781602001602082028036833780820191505090505b509050610708815f81518110612ba357612ba2616ce2565b5b602002602001019063ffffffff16908163ffffffff16815250505f81600181518110612bd257612bd1616ce2565b5b602002602001019063ffffffff16908163ffffffff16815250505f8273ffffffffffffffffffffffffffffffffffffffff1663883bdbfd836040518263ffffffff1660e01b8152600401612c269190617307565b5f60405180830381865afa925050508015612c6357506040513d5f823e3d601f19601f82011682018060405250810190612c6091906174dd565b60015b61305a575f5f8473ffffffffffffffffffffffffffffffffffffffff16633850c7bd6040518163ffffffff1660e01b815260040160e060405180830381865afa158015612cb2573d5f5f3e3d5ffd5b505050506040513d601f19601f82011682018060405250810190612cd691906168bd565b50505093509350505060018161ffff161115612fcb575f5f5f83600186612cfd9190617553565b612d079190617588565b90508773ffffffffffffffffffffffffffffffffffffffff1663252c09d7826040518263ffffffff1660e01b8152600401612d4291906175e8565b608060405180830381865afa158015612d5d573d5f5f3e3d5ffd5b505050506040513d601f19601f82011682018060405250810190612d81919061762b565b9091509050809350819450505081612e16578773ffffffffffffffffffffffffffffffffffffffff1663252c09d75f6040518263ffffffff1660e01b8152600401612dcc91906176c8565b608060405180830381865afa158015612de7573d5f5f3e3d5ffd5b505050506040513d601f19601f82011682018060405250810190612e0b919061762b565b909150905050809350505b5f8342612e2391906176e1565b90505f8163ffffffff161115612f3a5780885f81518110612e4757612e46616ce2565b5b602002602001019063ffffffff16908163ffffffff16815250505f8973ffffffffffffffffffffffffffffffffffffffff1663883bdbfd8a6040518263ffffffff1660e01b8152600401612e9b9190617307565b5f60405180830381865afa158015612eb5573d5f5f3e3d5ffd5b505050506040513d5f823e3d601f19601f82011682018060405250810190612edd91906174dd565b5090508163ffffffff16815f81518110612efa57612ef9616ce2565b5b602002602001015182600181518110612f1657612f15616ce2565b5b6020026020010151612f289190617718565b612f329190617776565b975050612fc2565b8873ffffffffffffffffffffffffffffffffffffffff16633850c7bd6040518163ffffffff1660e01b815260040160e060405180830381865afa158015612f83573d5f5f3e3d5ffd5b505050506040513d601f19601f82011682018060405250810190612fa791906168bd565b90919293949550909192935090919250909150905050809750505b50505050613053565b8473ffffffffffffffffffffffffffffffffffffffff16633850c7bd6040518163ffffffff1660e01b815260040160e060405180830381865afa158015613014573d5f5f3e3d5ffd5b505050506040513d601f19601f8201168201806040525081019061303891906168bd565b90919293949550909192935090919250909150905050809350505b50506130cb565b835f8151811061306d5761306c616ce2565b5b602002602001015163ffffffff16825f8151811061308e5761308d616ce2565b5b6020026020010151836001815181106130aa576130a9616ce2565b5b60200260200101516130bc9190617718565b6130c69190617776565b925050505b5f8773ffffffffffffffffffffffffffffffffffffffff168973ffffffffffffffffffffffffffffffffffffffff161090505f613107836135fe565b9050811561320d576fffffffffffffffffffffffffffffffff80168173ffffffffffffffffffffffffffffffffffffffff16116131a5575f8173ffffffffffffffffffffffffffffffffffffffff168273ffffffffffffffffffffffffffffffffffffffff166131779190616987565b905061319d89827801000000000000000000000000000000000000000000000000612575565b975050613208565b5f6131e68273ffffffffffffffffffffffffffffffffffffffff168373ffffffffffffffffffffffffffffffffffffffff1668010000000000000000612575565b90506132048982700100000000000000000000000000000000612575565b9750505b613307565b6fffffffffffffffffffffffffffffffff80168173ffffffffffffffffffffffffffffffffffffffff16116132a3575f8173ffffffffffffffffffffffffffffffffffffffff168273ffffffffffffffffffffffffffffffffffffffff166132759190616987565b905061329b89780100000000000000000000000000000000000000000000000083612575565b975050613306565b5f6132e48273ffffffffffffffffffffffffffffffffffffffff168373ffffffffffffffffffffffffffffffffffffffff1668010000000000000000612575565b90506133028970010000000000000000000000000000000083612575565b9750505b5b5050505050509392505050565b61331c615a1b565b8273ffffffffffffffffffffffffffffffffffffffff168473ffffffffffffffffffffffffffffffffffffffff16111561335b57828480945081955050505b60405180606001604052808573ffffffffffffffffffffffffffffffffffffffff1681526020018473ffffffffffffffffffffffffffffffffffffffff1681526020018362ffffff1681525090509392505050565b5f826020015173ffffffffffffffffffffffffffffffffffffffff16835f015173ffffffffffffffffffffffffffffffffffffffff16106133ef575f5ffd5b83835f015184602001518560400151604051602001613410939291906177ed565b6040516020818303038152906040528051906020012083604051602001613439939291906178db565b604051602081830303815290604052805190602001205f1c90509392505050565b5f6134b07f000000000000000000000000000000000000000000000000000000000000000061348a8686866139ef565b7f0000000000000000000000000000000000000000000000000000000000000000613a8b565b90509392505050565b5f5f5f5f5f5f5f876020015173ffffffffffffffffffffffffffffffffffffffff16885f015173ffffffffffffffffffffffffffffffffffffffff161090505f886060015190505f604051806080016040528084151581526020015f151581526020018b6080015162ffffff1681526020015f8c60a0015173ffffffffffffffffffffffffffffffffffffffff1614613556578b60a00151613595565b8461358157600173fffd8963efd1fc6a506488495d951d5263988d2661357c9190617922565b613594565b60016401000276a36135939190617969565b5b5b73ffffffffffffffffffffffffffffffffffffffff1681525090506135bf828b6040015183613b35565b809a50819b50829750839850505050505f85136135e557846135e0906179b9565b6135f0565b836135ef906179b9565b5b985050505050509193509193565b5f5f5f8360020b12613613578260020b61361a565b8260020b5f035b90507ffffffffffffffffffffffffffffffffffffffffffffffffffffffffffff276185f0360020b81111561367b576040517f2bc80f3a00000000000000000000000000000000000000000000000000000000815260040160405180910390fd5b5f5f600183160361369d577001000000000000000000000000000000006136af565b6ffffcb933bd6fad37aa2d162d1a5940015b70ffffffffffffffffffffffffffffffffff1690505f60028316146136e85760806ffff97272373d413259a46990580e213a8202901c90505b5f600483161461370c5760806ffff2e50f5f656932ef12357cf3c7fdcc8202901c90505b5f60088316146137305760806fffe5caca7e10e4e61c3624eaa0941cd08202901c90505b5f60108316146137545760806fffcb9843d60f6159c9db58835c9266448202901c90505b5f60208316146137785760806fff973b41fa98c081472e6896dfb254c08202901c90505b5f604083161461379c5760806fff2ea16466c96a3843ec78b326b528618202901c90505b5f60808316146137c05760806ffe5dee046a99a2a811c461f1969c30538202901c90505b5f6101008316146137e55760806ffcbe86c7900a88aedcffc83b479aa3a48202901c90505b5f61020083161461380a5760806ff987a7253ac413176f2b074cf7815e548202901c90505b5f61040083161461382f5760806ff3392b0822b70005940c7a398e4b70f38202901c90505b5f6108008316146138545760806fe7159475a2c29b7443b29c7fa6e889d98202901c90505b5f6110008316146138795760806fd097f3bdfd2022b8845ad8f792aa58258202901c90505b5f61200083161461389e5760806fa9f746462d870fdf8a65dc1f90e061e58202901c90505b5f6140008316146138c35760806f70d869a156d2a1b890bb3df62baf32f78202901c90505b5f6180008316146138e85760806f31be135f97d08fd981231505542fcfa68202901c90505b5f6201000083161461390e5760806f09aa508b5b7a84e1c677de54f3e99bc98202901c90505b5f620200008316146139335760806e5d6af8dedb81196699c329225ee6048202901c90505b5f620400008316146139575760806d2216e584f5fa1ea926041bedfe988202901c90505b5f620800008316146139795760806b048a170391f7dc42444e8fa28202901c90505b5f8460020b13156139b857807fffffffffffffffffffffffffffffffffffffffffffffffffffffffffffffffff816139b4576139b3616fcb565b5b0490505b5f64010000000082816139ce576139cd616fcb565b5b06146139db5760016139dd565b5f5b60ff16602082901c0192505050919050565b6139f7615a6a565b8273ffffffffffffffffffffffffffffffffffffffff168473ffffffffffffffffffffffffffffffffffffffff161115613a3657828480945081955050505b60405180606001604052808573ffffffffffffffffffffffffffffffffffffffff1681526020018473ffffffffffffffffffffffffffffffffffffffff1681526020018362ffffff1681525090509392505050565b5f826020015173ffffffffffffffffffffffffffffffffffffffff16835f015173ffffffffffffffffffffffffffffffffffffffff1610613aca575f5ffd5b83835f015184602001518560400151604051602001613aeb939291906177ed565b6040516020818303038152906040528051906020012083604051602001613b14939291906178db565b604051602081830303815290604052805190602001205f1c90509392505050565b5f5f5f5f5f8613856020019015159081151581525050600190505f613b598861418f565b90505f6040518060e001604052808981526020015f8152602001835f015173ffffffffffffffffffffffffffffffffffffffff168152602001836020015160020b81526020015f81526020015f6fffffffffffffffffffffffffffffffff1681526020018a73ffffffffffffffffffffffffffffffffffffffff16631a6865026040518163ffffffff1660e01b8152600401602060405180830381865afa158015613c06573d5f5f3e3d5ffd5b505050506040513d601f19601f82011682018060405250810190613c2a9190617a29565b6fffffffffffffffffffffffffffffffff1681525090505b5f815f015114158015613c895750866060015173ffffffffffffffffffffffffffffffffffffffff16816040015173ffffffffffffffffffffffffffffffffffffffff1614155b1561414757613c96615ab9565b8160400151815f019073ffffffffffffffffffffffffffffffffffffffff16908173ffffffffffffffffffffffffffffffffffffffff1681525050613ce88a846040015184606001518b5f01516142d9565b826020018360400182151515158152508260020b60020b81525050507ffffffffffffffffffffffffffffffffffffffffffffffffffffffffffff2761860020b816020015160020b1215613d6d577ffffffffffffffffffffffffffffffffffffffffffffffffffffffffffff27618816020019060020b908160020b81525050613de5565b7ffffffffffffffffffffffffffffffffffffffffffffffffffffffffffff27618613d9790617a54565b60020b816020015160020b1315613de4577ffffffffffffffffffffffffffffffffffffffffffffffffffffffffffff27618613dd290617a54565b816020019060020b908160020b815250505b5b613df281602001516144f1565b816060019073ffffffffffffffffffffffffffffffffffffffff16908173ffffffffffffffffffffffffffffffffffffffff1681525050613ed48260400151895f0151613e7557896060015173ffffffffffffffffffffffffffffffffffffffff16836060015173ffffffffffffffffffffffffffffffffffffffff1611613ead565b896060015173ffffffffffffffffffffffffffffffffffffffff16836060015173ffffffffffffffffffffffffffffffffffffffff16105b613ebb578260600151613ec1565b89606001515b8460c00151855f01518c604001516148eb565b85604001856080018660a0018760c0018481525084815250848152508473ffffffffffffffffffffffffffffffffffffffff1673ffffffffffffffffffffffffffffffffffffffff1681525050505050876020015115613f60578060c00151816080015101825f0181815103915081815250508060a00151826020015103826020018181525050613f8e565b8060a00151825f0181815101915081815250508060c001518160800151018260200151018260200181815250505b806060015173ffffffffffffffffffffffffffffffffffffffff16826040015173ffffffffffffffffffffffffffffffffffffffff16036140e7578060400151156140b6575f8a73ffffffffffffffffffffffffffffffffffffffff1663f30dba9383602001516040518263ffffffff1660e01b81526004016140119190617aa9565b61010060405180830381865afa15801561402d573d5f5f3e3d5ffd5b505050506040513d601f19601f820116820180604052508101906140519190617af8565b505050505050915050885f01511561406957805f0390505b6140778360c0015182614b39565b8360c001906fffffffffffffffffffffffffffffffff1690816fffffffffffffffffffffffffffffffff168152505084806140b190617ba9565b955050505b875f01516140c85780602001516140d1565b60018160200151035b826060019060020b908160020b81525050614141565b805f015173ffffffffffffffffffffffffffffffffffffffff16826040015173ffffffffffffffffffffffffffffffffffffffff16146141405761412e8260400151614c49565b826060019060020b908160020b815250505b5b50613c42565b86602001511515875f0151151514614169578060200151815f01518903614175565b805f0151880381602001515b809650819750505080604001519350505093509350935093565b614197615b20565b8173ffffffffffffffffffffffffffffffffffffffff16633850c7bd6040518163ffffffff1660e01b815260040160e060405180830381865afa1580156141e0573d5f5f3e3d5ffd5b505050506040513d601f19601f8201168201806040525081019061420491906168bd565b909192935090919250909150905050825f01836020018260020b60020b8152508273ffffffffffffffffffffffffffffffffffffffff1673ffffffffffffffffffffffffffffffffffffffff1681525050508173ffffffffffffffffffffffffffffffffffffffff1663d0c93a7c6040518163ffffffff1660e01b8152600401602060405180830381865afa15801561429f573d5f5f3e3d5ffd5b505050506040513d601f19601f820116820180604052508101906142c39190617bd4565b816040019060020b908160020b81525050919050565b5f5f5f8560020b8560020b816142f2576142f1616fcb565b5b0590505f8560020b12801561432057505f8660020b8660020b8161431957614318616fcb565b5b0760020b14155b1561432f578080600190039150505b831561440e575f5f6143408361500d565b915091505f8160ff166001901b60018360ff166001901b030190505f818b73ffffffffffffffffffffffffffffffffffffffff16635339c296866040518263ffffffff1660e01b81526004016143969190617c1a565b602060405180830381865afa1580156143b1573d5f5f3e3d5ffd5b505050506040513d601f19601f820116820180604052508101906143d59190616b14565b1690505f8114159550856143f057898360ff16860302614403565b896143fa82615036565b840360ff168603025b9650505050506144e7565b5f5f61441c6001840161500d565b915091505f60018260ff166001901b031990505f818b73ffffffffffffffffffffffffffffffffffffffff16635339c296866040518263ffffffff1660e01b815260040161446a9190617c1a565b602060405180830381865afa158015614485573d5f5f3e3d5ffd5b505050506040513d601f19601f820116820180604052508101906144a99190616b14565b1690505f8114159550856144ca57898360ff0360ff166001870101026144e0565b89836144d58361510f565b0360ff166001870101025b9650505050505b5094509492505050565b5f5f5f8360020b12614506578260020b61450d565b8260020b5f035b90507ffffffffffffffffffffffffffffffffffffffffffffffffffffffffffff276185f0360020b811115614577576040517f08c379a000000000000000000000000000000000000000000000000000000000815260040161456e90617c8d565b60405180910390fd5b5f5f6001831603614599577001000000000000000000000000000000006145ab565b6ffffcb933bd6fad37aa2d162d1a5940015b70ffffffffffffffffffffffffffffffffff1690505f60028316146145e45760806ffff97272373d413259a46990580e213a8202901c90505b5f60048316146146085760806ffff2e50f5f656932ef12357cf3c7fdcc8202901c90505b5f600883161461462c5760806fffe5caca7e10e4e61c3624eaa0941cd08202901c90505b5f60108316146146505760806fffcb9843d60f6159c9db58835c9266448202901c90505b5f60208316146146745760806fff973b41fa98c081472e6896dfb254c08202901c90505b5f60408316146146985760806fff2ea16466c96a3843ec78b326b528618202901c90505b5f60808316146146bc5760806ffe5dee046a99a2a811c461f1969c30538202901c90505b5f6101008316146146e15760806ffcbe86c7900a88aedcffc83b479aa3a48202901c90505b5f6102008316146147065760806ff987a7253ac413176f2b074cf7815e548202901c90505b5f61040083161461472b5760806ff3392b0822b70005940c7a398e4b70f38202901c90505b5f6108008316146147505760806fe7159475a2c29b7443b29c7fa6e889d98202901c90505b5f6110008316146147755760806fd097f3bdfd2022b8845ad8f792aa58258202901c90505b5f61200083161461479a5760806fa9f746462d870fdf8a65dc1f90e061e58202901c90505b5f6140008316146147bf5760806f70d869a156d2a1b890bb3df62baf32f78202901c90505b5f6180008316146147e45760806f31be135f97d08fd981231505542fcfa68202901c90505b5f6201000083161461480a5760806f09aa508b5b7a84e1c677de54f3e99bc98202901c90505b5f6202000083161461482f5760806e5d6af8dedb81196699c329225ee6048202901c90505b5f620400008316146148535760806d2216e584f5fa1ea926041bedfe988202901c90505b5f620800008316146148755760806b048a170391f7dc42444e8fa28202901c90505b5f8460020b13156148b457807fffffffffffffffffffffffffffffffffffffffffffffffffffffffffffffffff816148b0576148af616fcb565b5b0490505b5f64010000000082816148ca576148c9616fcb565b5b06146148d75760016148d9565b5f5b60ff16602082901c0192505050919050565b5f5f5f5f5f8873ffffffffffffffffffffffffffffffffffffffff168a73ffffffffffffffffffffffffffffffffffffffff16101590505f5f88121590508015614995575f6149488989620f42400362ffffff16620f424061522c565b9050826149615761495c8c8c8c60016152fa565b61496f565b61496e8b8d8c60016153d3565b5b9550858110614980578a965061498f565b61498c8c8b838661550b565b96505b506149dd565b816149ab576149a68b8b8b5f6153d3565b6149b8565b6149b78a8c8b5f6152fa565b5b935083885f03106149cb578995506149dc565b6149d98b8a8a5f0385615579565b95505b5b5f8673ffffffffffffffffffffffffffffffffffffffff168b73ffffffffffffffffffffffffffffffffffffffff161490508215614a6257808015614a1f5750815b614a3557614a30878d8c60016153d3565b614a37565b855b9550808015614a44575081155b614a5957614a54878d8c5f6152fa565b614a5b565b845b9450614aab565b808015614a6c5750815b614a8257614a7d8c888c60016152fa565b614a84565b855b9550808015614a91575081155b614aa657614aa18c888c5f6153d3565b614aa8565b845b94505b81158015614aba5750885f0385115b15614ac557885f0394505b818015614afe57508a73ffffffffffffffffffffffffffffffffffffffff168773ffffffffffffffffffffffffffffffffffffffff1614155b15614b0d578589039350614b2a565b614b27868962ffffff168a620f42400362ffffff166155e5565b93505b50505095509550955095915050565b5f5f82600f0b1215614bcd575f82614b5090617cab565b9050806fffffffffffffffffffffffffffffffff16846fffffffffffffffffffffffffffffffff161015614bb9576040517f08c379a0000000000000000000000000000000000000000000000000000000008152600401614bb090617d3b565b60405180910390fd5b8084614bc59190617d59565b915050614c43565b8183614bd99190617d9c565b9050826fffffffffffffffffffffffffffffffff16816fffffffffffffffffffffffffffffffff161015614c42576040517f08c379a0000000000000000000000000000000000000000000000000000000008152600401614c3990617e29565b60405180910390fd5b5b92915050565b5f6401000276a373ffffffffffffffffffffffffffffffffffffffff168273ffffffffffffffffffffffffffffffffffffffff1610158015614cca575073fffd8963efd1fc6a506488495d951d5263988d2673ffffffffffffffffffffffffffffffffffffffff168273ffffffffffffffffffffffffffffffffffffffff16105b614d09576040517f08c379a0000000000000000000000000000000000000000000000000000000008152600401614d0090617e91565b60405180910390fd5b5f60208373ffffffffffffffffffffffffffffffffffffffff16901b90505f8190505f5f90506fffffffffffffffffffffffffffffffff821160071b808217915082811c92505067ffffffffffffffff821160061b808217915082811c92505063ffffffff821160051b808217915082811c92505061ffff821160041b808217915082811c92505060ff821160031b808217915082811c925050600f821160021b808217915082811c9250506003821160011b808217915082811c9250506001821180821791505060808110614de757607f810383901c9150614df1565b80607f0383901b91505b5f604060808303901b9050828302607f1c92508260801c80603f1b8217915083811c935050828302607f1c92508260801c80603e1b8217915083811c935050828302607f1c92508260801c80603d1b8217915083811c935050828302607f1c92508260801c80603c1b8217915083811c935050828302607f1c92508260801c80603b1b8217915083811c935050828302607f1c92508260801c80603a1b8217915083811c935050828302607f1c92508260801c8060391b8217915083811c935050828302607f1c92508260801c8060381b8217915083811c935050828302607f1c92508260801c8060371b8217915083811c935050828302607f1c92508260801c8060361b8217915083811c935050828302607f1c92508260801c8060351b8217915083811c935050828302607f1c92508260801c8060341b8217915083811c935050828302607f1c92508260801c8060331b8217915083811c935050828302607f1c92508260801c8060321b82179150505f693627a301d71055774c85820290505f60806f028f6481ab7f045a5af012a19d003aaa8303901d90505f60806fdb2df09e81959a81455e260799a0632f8401901d90508060020b8260020b14614ffd578873ffffffffffffffffffffffffffffffffffffffff16614fd4826144f1565b73ffffffffffffffffffffffffffffffffffffffff161115614ff65781614ff8565b805b614fff565b815b975050505050505050919050565b5f5f60088360020b901d91506101008360020b8161502e5761502d616fcb565b5b079050915091565b5f5f8211615042575f5ffd5b700100000000000000000000000000000000821061506857608082901c91506080810190505b68010000000000000000821061508657604082901c91506040810190505b64010000000082106150a057602082901c91506020810190505b6201000082106150b857601082901c91506010810190505b61010082106150cf57600882901c91506008810190505b601082106150e557600482901c91506004810190505b600482106150fb57600282901c91506002810190505b6002821061510a576001810190505b919050565b5f5f821161511b575f5ffd5b60ff90505f6fffffffffffffffffffffffffffffffff8016831611156151465760808103905061514e565b608082901c91505b5f67ffffffffffffffff80168316111561516d57604081039050615175565b604082901c91505b5f63ffffffff80168316111561519057602081039050615198565b602082901c91505b5f61ffff8016831611156151b1576010810390506151b9565b601082901c91505b5f60ff8016831611156151d1576008810390506151d9565b600882901c91505b5f600f831611156151ef576004810390506151f7565b600482901c91505b5f60038316111561520d57600281039050615215565b600282901c91505b5f600183161115615227576001810390505b919050565b5f5f5f5f198587098587029250828110838203039150505f8103615261575f8411615255575f5ffd5b838204925050506152f3565b80841161526c575f5ffd5b5f8486880990508281118203915080830392505f85865f0316905080860495508084049350600181825f0304019050808302841793505f600287600302189050808702600203810290508087026002038102905080870260020381029050808702600203810290508087026002038102905080870260020381029050808502955050505050505b9392505050565b5f8373ffffffffffffffffffffffffffffffffffffffff168573ffffffffffffffffffffffffffffffffffffffff16111561533a57838580955081965050505b8161538657615381836fffffffffffffffffffffffffffffffff1686860373ffffffffffffffffffffffffffffffffffffffff166c0100000000000000000000000061522c565b6153c9565b6153c8836fffffffffffffffffffffffffffffffff1686860373ffffffffffffffffffffffffffffffffffffffff166c010000000000000000000000006155e5565b5b9050949350505050565b5f8373ffffffffffffffffffffffffffffffffffffffff168573ffffffffffffffffffffffffffffffffffffffff16111561541357838580955081965050505b5f606060ff16846fffffffffffffffffffffffffffffffff16901b90505f86860373ffffffffffffffffffffffffffffffffffffffff1690505f8773ffffffffffffffffffffffffffffffffffffffff161161546d575f5ffd5b836154be578673ffffffffffffffffffffffffffffffffffffffff166154aa83838973ffffffffffffffffffffffffffffffffffffffff1661522c565b816154b8576154b7616fcb565b5b046154ff565b6154fe6154e283838973ffffffffffffffffffffffffffffffffffffffff166155e5565b8873ffffffffffffffffffffffffffffffffffffffff16615647565b5b92505050949350505050565b5f5f8573ffffffffffffffffffffffffffffffffffffffff161161552d575f5ffd5b5f846fffffffffffffffffffffffffffffffff161161554a575f5ffd5b816155615761555c8585856001615659565b61556f565b61556e85858560016157e1565b5b9050949350505050565b5f5f8573ffffffffffffffffffffffffffffffffffffffff161161559b575f5ffd5b5f846fffffffffffffffffffffffffffffffff16116155b8575f5ffd5b816155ce576155c98585855f6157e1565b6155db565b6155da8585855f615659565b5b9050949350505050565b5f6155f184848461522c565b90505f828061560357615602616fcb565b5b8486091115615640577fffffffffffffffffffffffffffffffffffffffffffffffffffffffffffffffff8110615637575f5ffd5b80806001019150505b9392505050565b5f5f8284061182840401905092915050565b5f8115615727575f73ffffffffffffffffffffffffffffffffffffffff80168411156156ae576156a9846c01000000000000000000000000876fffffffffffffffffffffffffffffffff1661522c565b6156d4565b846fffffffffffffffffffffffffffffffff16606060ff1685901b6156d39190617064565b5b90505f818773ffffffffffffffffffffffffffffffffffffffff166156f99190616c7c565b905073ffffffffffffffffffffffffffffffffffffffff801681111561571d575f5ffd5b80925050506157d9565b5f73ffffffffffffffffffffffffffffffffffffffff801684111561577557615770846c01000000000000000000000000876fffffffffffffffffffffffffffffffff166155e5565b615799565b615798606060ff1685901b866fffffffffffffffffffffffffffffffff16615647565b5b9050808673ffffffffffffffffffffffffffffffffffffffff16116157bc575f5ffd5b808673ffffffffffffffffffffffffffffffffffffffff16039150505b949350505050565b5f5f83036157f15784905061597e565b5f606060ff16856fffffffffffffffffffffffffffffffff16901b905082156158d2575f8673ffffffffffffffffffffffffffffffffffffffff16858873ffffffffffffffffffffffffffffffffffffffff1687029250828161585757615856616fcb565b5b0403615897575f81830190508281106158955761588b838973ffffffffffffffffffffffffffffffffffffffff16836155e5565b935050505061597e565b505b6158c982868973ffffffffffffffffffffffffffffffffffffffff1685816158c2576158c1616fcb565b5b0401615647565b9250505061597e565b5f8673ffffffffffffffffffffffffffffffffffffffff16858873ffffffffffffffffffffffffffffffffffffffff1687029250828161591557615914616fcb565b5b0414801561592257508082115b61592a575f5ffd5b5f81830390505f615952848a73ffffffffffffffffffffffffffffffffffffffff16846155e5565b905073ffffffffffffffffffffffffffffffffffffffff8016811115615976575f5ffd5b809450505050505b949350505050565b60405180606001604052805f71ffffffffffffffffffffffffffffffffffff1681526020015f71ffffffffffffffffffffffffffffffffffff1681526020015f60070b81525090565b60405180606001604052805f73ffffffffffffffffffffffffffffffffffffffff1681526020015f73ffffffffffffffffffffffffffffffffffffffff1681526020015f5f0b81525090565b60405180606001604052805f73ffffffffffffffffffffffffffffffffffffffff1681526020015f73ffffffffffffffffffffffffffffffffffffffff1681526020015f62ffffff1681525090565b60405180606001604052805f73ffffffffffffffffffffffffffffffffffffffff1681526020015f73ffffffffffffffffffffffffffffffffffffffff1681526020015f62ffffff1681525090565b6040518060e001604052805f73ffffffffffffffffffffffffffffffffffffffff1681526020015f60020b81526020015f151581526020015f73ffffffffffffffffffffffffffffffffffffffff1681526020015f81526020015f81526020015f81525090565b60405180606001604052805f73ffffffffffffffffffffffffffffffffffffffff1681526020015f60020b81526020015f60020b81525090565b5f604051905090565b5f5ffd5b5f5ffd5b5f5ffd5b5f60608284031215615b8457615b83615b6b565b5b81905092915050565b5f60608284031215615ba257615ba1615b63565b5b5f615baf84828501615b6f565b91505092915050565b7f4e487b71000000000000000000000000000000000000000000000000000000005f52602160045260245ffd5b60048110615bf657615bf5615bb8565b5b50565b5f819050615c0682615be5565b919050565b5f615c1582615bf9565b9050919050565b615c2581615c0b565b82525050565b5f602082019050615c3e5f830184615c1c565b92915050565b5f73ffffffffffffffffffffffffffffffffffffffff82169050919050565b5f615c6d82615c44565b9050919050565b615c7d81615c63565b8114615c87575f5ffd5b50565b5f81359050615c9881615c74565b92915050565b5f819050919050565b615cb081615c9e565b8114615cba575f5ffd5b50565b5f81359050615ccb81615ca7565b92915050565b5f5f5f60608486031215615ce857615ce7615b63565b5b5f615cf586828701615c8a565b9350506020615d0686828701615c8a565b9250506040615d1786828701615cbd565b9150509250925092565b615d2a81615c9e565b82525050565b5f602082019050615d435f830184615d21565b92915050565b5f8115159050919050565b615d5d81615d49565b8114615d67575f5ffd5b50565b5f81359050615d7881615d54565b92915050565b5f5f5f60a08486031215615d9557615d94615b63565b5b5f615da286828701615d6a565b9350506020615db386828701615b6f565b9250506080615dc486828701615cbd565b9150509250925092565b5f606082019050615de15f830186615d21565b615dee6020830185615d21565b615dfb6040830184615d21565b949350505050565b5f819050919050565b5f615e26615e21615e1c84615c44565b615e03565b615c44565b9050919050565b5f615e3782615e0c565b9050919050565b5f615e4882615e2d565b9050919050565b615e5881615e3e565b82525050565b5f602082019050615e715f830184615e4f565b92915050565b5f604082019050615e8a5f830185615d21565b615e976020830184615d21565b9392505050565b5f5f5f60608486031215615eb557615eb4615b63565b5b5f615ec286828701615c8a565b9350506020615ed386828701615cbd565b9250506040615ee486828701615cbd565b9150509250925092565b5f81519050919050565b5f82825260208201905092915050565b5f819050602082019050919050565b615f2081615c9e565b82525050565b5f615f318383615f17565b60208301905092915050565b5f602082019050919050565b5f615f5382615eee565b615f5d8185615ef8565b9350615f6883615f08565b805f5b83811015615f98578151615f7f8882615f26565b9750615f8a83615f3d565b925050600181019050615f6b565b5085935050505092915050565b5f81519050919050565b5f82825260208201905092915050565b5f819050602082019050919050565b5f69ffffffffffffffffffff82169050919050565b615fec81615fce565b82525050565b5f615ffd8383615fe3565b60208301905092915050565b5f602082019050919050565b5f61601f82615fa5565b6160298185615faf565b935061603483615fbf565b805f5b8381101561606457815161604b8882615ff2565b975061605683616009565b925050600181019050616037565b5085935050505092915050565b5f6060820190508181035f8301526160898186615f49565b9050818103602083015261609d8185615f49565b905081810360408301526160b18184616015565b9050949350505050565b5f71ffffffffffffffffffffffffffffffffffff82169050919050565b6160e1816160bb565b81146160eb575f5ffd5b50565b5f813590506160fc816160d8565b92915050565b5f5f5f60a0848603121561611957616118615b63565b5b5f61612686828701615d6a565b935050602061613786828701615b6f565b9250506080616148868287016160ee565b9150509250925092565b5f65ffffffffffff82169050919050565b61616c81616152565b8114616176575f5ffd5b50565b5f8135905061618781616163565b92915050565b5f602082840312156161a2576161a1615b63565b5b5f6161af84828501616179565b91505092915050565b6161c181615c63565b82525050565b5f6020820190506161da5f8301846161b8565b92915050565b5f6161ea82615e2d565b9050919050565b6161fa816161e0565b82525050565b5f6020820190506162135f8301846161f1565b92915050565b5f5ffd5b5f5ffd5b5f5ffd5b5f5f83601f84011261623a57616239616219565b5b8235905067ffffffffffffffff8111156162575761625661621d565b5b60208301915083602082028301111561627357616272616221565b5b9250929050565b5f5f602083850312156162905761628f615b63565b5b5f83013567ffffffffffffffff8111156162ad576162ac615b67565b5b6162b985828601616225565b92509250509250929050565b5f81519050919050565b5f82825260208201905092915050565b5f819050602082019050919050565b6162f7816160bb565b82525050565b5f8160070b9050919050565b616312816162fd565b82525050565b606082015f82015161632c5f8501826162ee565b50602082015161633f60208501826162ee565b5060408201516163526040850182616309565b50505050565b5f6163638383616318565b60608301905092915050565b5f602082019050919050565b5f616385826162c5565b61638f81856162cf565b935061639a836162df565b805f5b838110156163ca5781516163b18882616358565b97506163bc8361636f565b92505060018101905061639d565b5085935050505092915050565b5f6020820190508181035f8301526163ef818461637b565b905092915050565b616400816160bb565b82525050565b5f6040820190506164195f8301856163f7565b6164266020830184615d21565b9392505050565b5f819050919050565b61643f8161642d565b82525050565b5f6020820190506164585f830184616436565b92915050565b5f6020828403121561647357616472615b63565b5b5f61648084828501615c8a565b91505092915050565b5f81519050919050565b5f81905092915050565b8281835e5f83830152505050565b5f6164b582616489565b6164bf8185616493565b93506164cf81856020860161649d565b80840191505092915050565b5f6164e682846164ab565b915081905092915050565b5f815f0b9050919050565b616505816164f1565b811461650f575f5ffd5b50565b5f81359050616520816164fc565b92915050565b5f6020828403121561653b5761653a615b63565b5b5f61654884828501616512565b91505092915050565b5f61655f6020840184615c8a565b905092915050565b61657081615c63565b82525050565b5f6165846020840184616512565b905092915050565b616595816164f1565b82525050565b606082016165ab5f830183616551565b6165b75f850182616567565b506165c56020830183616551565b6165d26020850182616567565b506165e06040830183616576565b6165ed604085018261658c565b50505050565b5f6060820190506166065f83018461659b565b92915050565b5f5ffd5b5f601f19601f8301169050919050565b7f4e487b71000000000000000000000000000000000000000000000000000000005f52604160045260245ffd5b61665682616610565b810181811067ffffffffffffffff8211171561667557616674616620565b5b80604052505050565b5f616687615b5a565b9050616693828261664d565b919050565b5f815190506166a6816160d8565b92915050565b6166b5816162fd565b81146166bf575f5ffd5b50565b5f815190506166d0816166ac565b92915050565b5f815190506166e481616163565b92915050565b5f606082840312156166ff576166fe61660c565b5b616709606061667e565b90505f61671884828501616698565b5f83015250602061672b848285016166c2565b602083015250604061673f848285016166d6565b60408301525092915050565b5f606082840312156167605761675f615b63565b5b5f61676d848285016166ea565b91505092915050565b5f6040820190506167895f8301856161b8565b61679660208301846161b8565b9392505050565b5f815190506167ab81615c74565b92915050565b5f602082840312156167c6576167c5615b63565b5b5f6167d38482850161679d565b91505092915050565b6167e581615c44565b81146167ef575f5ffd5b50565b5f81519050616800816167dc565b92915050565b5f8160020b9050919050565b61681b81616806565b8114616825575f5ffd5b50565b5f8151905061683681616812565b92915050565b5f61ffff82169050919050565b6168528161683c565b811461685c575f5ffd5b50565b5f8151905061686d81616849565b92915050565b5f60ff82169050919050565b61688881616873565b8114616892575f5ffd5b50565b5f815190506168a38161687f565b92915050565b5f815190506168b781615d54565b92915050565b5f5f5f5f5f5f5f60e0888a0312156168d8576168d7615b63565b5b5f6168e58a828b016167f2565b97505060206168f68a828b01616828565b96505060406169078a828b0161685f565b95505060606169188a828b0161685f565b94505060806169298a828b0161685f565b93505060a061693a8a828b01616895565b92505060c061694b8a828b016168a9565b91505092959891949750929550565b7f4e487b71000000000000000000000000000000000000000000000000000000005f52601160045260245ffd5b5f61699182615c9e565b915061699c83615c9e565b92508282026169aa81615c9e565b915082820484148315176169c1576169c061695a565b5b5092915050565b5f62ffffff82169050919050565b6169df816169c8565b81146169e9575f5ffd5b50565b5f815190506169fa816169d6565b92915050565b5f60208284031215616a1557616a14615b63565b5b5f616a22848285016169ec565b91505092915050565b5f60608284031215616a4057616a3f61660c565b5b616a4a606061667e565b90505f616a5984828501616698565b5f830152506020616a6c84828501616698565b6020830152506040616a80848285016166c2565b60408301525092915050565b5f60608284031215616aa157616aa0615b63565b5b5f616aae84828501616a2b565b91505092915050565b5f616ad1616acc616ac784616152565b615e03565b615c9e565b9050919050565b616ae181616ab7565b82525050565b5f602082019050616afa5f830184616ad8565b92915050565b5f81519050616b0e81615ca7565b92915050565b5f60208284031215616b2957616b28615b63565b5b5f616b3684828501616b00565b91505092915050565b5f64ffffffffff82169050919050565b616b5881616b3f565b8114616b62575f5ffd5b50565b5f81519050616b7381616b4f565b92915050565b5f60608284031215616b8e57616b8d61660c565b5b616b98606061667e565b90505f616ba78482850161685f565b5f830152506020616bba8482850161685f565b6020830152506040616bce84828501616b65565b60408301525092915050565b5f6101008284031215616bf057616bef61660c565b5b616bfa608061667e565b90505f616c0984828501616b79565b5f830152506060616c1c84828501616b79565b60208301525060c0616c30848285016168a9565b60408301525060e0616c448482850161685f565b60608301525092915050565b5f6101008284031215616c6657616c65615b63565b5b5f616c7384828501616bda565b91505092915050565b5f616c8682615c9e565b9150616c9183615c9e565b9250828201905080821115616ca957616ca861695a565b5b92915050565b5f616cb982615c9e565b9150616cc483615c9e565b9250828203905081811115616cdc57616cdb61695a565b5b92915050565b7f4e487b71000000000000000000000000000000000000000000000000000000005f52603260045260245ffd5b5f604082019050616d225f8301856161b8565b616d2f6020830184615d21565b9392505050565b5f604082019050616d495f830185615d21565b616d5660208301846161b8565b9392505050565b616d6681615fce565b8114616d70575f5ffd5b50565b5f81519050616d8181616d5d565b92915050565b5f60208284031215616d9c57616d9b615b63565b5b5f616da984828501616d73565b91505092915050565b5f616dbc82615c9e565b91507fffffffffffffffffffffffffffffffffffffffffffffffffffffffffffffffff8203616dee57616ded61695a565b5b600182019050919050565b5f616e03826160bb565b9150616e0e836160bb565b9250828201905071ffffffffffffffffffffffffffffffffffff811115616e3857616e3761695a565b5b92915050565b5f8160011c9050919050565b5f5f8291508390505b6001851115616e9357808604811115616e6f57616e6e61695a565b5b6001851615616e7e5780820291505b8081029050616e8c85616e3e565b9450616e53565b94509492505050565b5f82616eab5760019050616f66565b81616eb8575f9050616f66565b8160018114616ece5760028114616ed857616f07565b6001915050616f66565b60ff841115616eea57616ee961695a565b5b8360020a915084821115616f0157616f0061695a565b5b50616f66565b5060208310610133831016604e8410600b8410161715616f3c5782820a905083811115616f3757616f3661695a565b5b616f66565b616f498484846001616e4a565b92509050818404811115616f6057616f5f61695a565b5b81810290505b9392505050565b5f616f7782615c9e565b9150616f8283616873565b9250616faf7fffffffffffffffffffffffffffffffffffffffffffffffffffffffffffffffff8484616e9c565b905092915050565b5f68ffffffffffffffffff82169050919050565b7f4e487b71000000000000000000000000000000000000000000000000000000005f52601260045260245ffd5b5f61700282616fb7565b915061700d83616fb7565b92508261701d5761701c616fcb565b5b828204905092915050565b5f61703282616fb7565b915061703d83616fb7565b9250828201905068ffffffffffffffffff81111561705e5761705d61695a565b5b92915050565b5f61706e82615c9e565b915061707983615c9e565b92508261708957617088616fcb565b5b828204905092915050565b5f6fffffffffffffffffffffffffffffffff82169050919050565b5f6170b982617094565b91506170c483617094565b9250826170d4576170d3616fcb565b5b828204905092915050565b6170e881616152565b82525050565b5f6020820190506171015f8301846170df565b92915050565b5f81519050617115816164fc565b92915050565b5f606082840312156171305761712f61660c565b5b61713a606061667e565b90505f6171498482850161679d565b5f83015250602061715c8482850161679d565b602083015250604061717084828501617107565b60408301525092915050565b5f6060828403121561719157617190615b63565b5b5f61719e8482850161711b565b91505092915050565b606082015f8201516171bb5f850182616567565b5060208201516171ce6020850182616567565b5060408201516171e1604085018261658c565b50505050565b5f6060820190506171fa5f8301846171a7565b92915050565b5f61720a826160bb565b9150617215836160bb565b9250828202617223816160bb565b9150828204841483151761723a5761723961695a565b5b5092915050565b5f81519050919050565b5f82825260208201905092915050565b5f819050602082019050919050565b5f63ffffffff82169050919050565b6172828161726a565b82525050565b5f6172938383617279565b60208301905092915050565b5f602082019050919050565b5f6172b582617241565b6172bf818561724b565b93506172ca8361725b565b805f5b838110156172fa5781516172e18882617288565b97506172ec8361729f565b9250506001810190506172cd565b5085935050505092915050565b5f6020820190508181035f83015261731f81846172ab565b905092915050565b5f67ffffffffffffffff82111561734157617340616620565b5b602082029050602081019050919050565b5f8160060b9050919050565b61736781617352565b8114617371575f5ffd5b50565b5f815190506173828161735e565b92915050565b5f61739a61739584617327565b61667e565b905080838252602082019050602084028301858111156173bd576173bc616221565b5b835b818110156173e657806173d28882617374565b8452602084019350506020810190506173bf565b5050509392505050565b5f82601f83011261740457617403616219565b5b8151617414848260208601617388565b91505092915050565b5f67ffffffffffffffff82111561743757617436616620565b5b602082029050602081019050919050565b5f61745a6174558461741d565b61667e565b9050808382526020820190506020840283018581111561747d5761747c616221565b5b835b818110156174a6578061749288826167f2565b84526020840193505060208101905061747f565b5050509392505050565b5f82601f8301126174c4576174c3616219565b5b81516174d4848260208601617448565b91505092915050565b5f5f604083850312156174f3576174f2615b63565b5b5f83015167ffffffffffffffff8111156175105761750f615b67565b5b61751c858286016173f0565b925050602083015167ffffffffffffffff81111561753d5761753c615b67565b5b617549858286016174b0565b9150509250929050565b5f61755d8261683c565b91506175688361683c565b9250828201905061ffff8111156175825761758161695a565b5b92915050565b5f6175928261683c565b915061759d8361683c565b9250826175ad576175ac616fcb565b5b828206905092915050565b5f6175d26175cd6175c88461683c565b615e03565b615c9e565b9050919050565b6175e2816175b8565b82525050565b5f6020820190506175fb5f8301846175d9565b92915050565b61760a8161726a565b8114617614575f5ffd5b50565b5f8151905061762581617601565b92915050565b5f5f5f5f6080858703121561764357617642615b63565b5b5f61765087828801617617565b945050602061766187828801617374565b9350506040617672878288016167f2565b9250506060617683878288016168a9565b91505092959194509250565b5f819050919050565b5f6176b26176ad6176a88461768f565b615e03565b615c9e565b9050919050565b6176c281617698565b82525050565b5f6020820190506176db5f8301846176b9565b92915050565b5f6176eb8261726a565b91506176f68361726a565b9250828203905063ffffffff8111156177125761771161695a565b5b92915050565b5f61772282617352565b915061772d83617352565b92508282039050667fffffffffffff81137fffffffffffffffffffffffffffffffffffffffffffffffffff80000000000000821217156177705761776f61695a565b5b92915050565b5f61778082617352565b915061778b83617352565b92508261779b5761779a616fcb565b5b60015f0383147fffffffffffffffffffffffffffffffffffffffffffffffffff80000000000000831416156177d3576177d261695a565b5b828205905092915050565b6177e7816169c8565b82525050565b5f6060820190506178005f8301866161b8565b61780d60208301856161b8565b61781a60408301846177de565b949350505050565b5f81905092915050565b7fff000000000000000000000000000000000000000000000000000000000000005f82015250565b5f617860600183617822565b915061786b8261782c565b600182019050919050565b5f8160601b9050919050565b5f61788c82617876565b9050919050565b5f61789d82617882565b9050919050565b6178b56178b082615c63565b617893565b82525050565b5f819050919050565b6178d56178d08261642d565b6178bb565b82525050565b5f6178e582617854565b91506178f182866178a4565b60148201915061790182856178c4565b60208201915061791182846178c4565b602082019150819050949350505050565b5f61792c82615c44565b915061793783615c44565b9250828203905073ffffffffffffffffffffffffffffffffffffffff8111156179635761796261695a565b5b92915050565b5f61797382615c44565b915061797e83615c44565b9250828201905073ffffffffffffffffffffffffffffffffffffffff8111156179aa576179a961695a565b5b92915050565b5f819050919050565b5f6179c3826179b0565b91507f800000000000000000000000000000000000000000000000000000000000000082036179f5576179f461695a565b5b815f039050919050565b617a0881617094565b8114617a12575f5ffd5b50565b5f81519050617a23816179ff565b92915050565b5f60208284031215617a3e57617a3d615b63565b5b5f617a4b84828501617a15565b91505092915050565b5f617a5e82616806565b91507fffffffffffffffffffffffffffffffffffffffffffffffffffffffffff8000008203617a9057617a8f61695a565b5b815f039050919050565b617aa381616806565b82525050565b5f602082019050617abc5f830184617a9a565b92915050565b5f81600f0b9050919050565b617ad781617ac2565b8114617ae1575f5ffd5b50565b5f81519050617af281617ace565b92915050565b5f5f5f5f5f5f5f5f610100898b031215617b1557617b14615b63565b5b5f617b228b828c01617a15565b9850506020617b338b828c01617ae4565b9750506040617b448b828c01616b00565b9650506060617b558b828c01616b00565b9550506080617b668b828c01617374565b94505060a0617b778b828c016167f2565b93505060c0617b888b828c01617617565b92505060e0617b998b828c016168a9565b9150509295985092959890939650565b5f617bb38261726a565b915063ffffffff8203617bc957617bc861695a565b5b600182019050919050565b5f60208284031215617be957617be8615b63565b5b5f617bf684828501616828565b91505092915050565b5f8160010b9050919050565b617c1481617bff565b82525050565b5f602082019050617c2d5f830184617c0b565b92915050565b5f82825260208201905092915050565b7f54000000000000000000000000000000000000000000000000000000000000005f82015250565b5f617c77600183617c33565b9150617c8282617c43565b602082019050919050565b5f6020820190508181035f830152617ca481617c6b565b9050919050565b5f617cb582617ac2565b91507fffffffffffffffffffffffffffffffff800000000000000000000000000000008203617ce757617ce661695a565b5b815f039050919050565b7f4c530000000000000000000000000000000000000000000000000000000000005f82015250565b5f617d25600283617c33565b9150617d3082617cf1565b602082019050919050565b5f6020820190508181035f830152617d5281617d19565b9050919050565b5f617d6382617094565b9150617d6e83617094565b925082820390506fffffffffffffffffffffffffffffffff811115617d9657617d9561695a565b5b92915050565b5f617da682617094565b9150617db183617094565b925082820190506fffffffffffffffffffffffffffffffff811115617dd957617dd861695a565b5b92915050565b7f4c410000000000000000000000000000000000000000000000000000000000005f82015250565b5f617e13600283617c33565b9150617e1e82617ddf565b602082019050919050565b5f6020820190508181035f830152617e4081617e07565b9050919050565b7f52000000000000000000000000000000000000000000000000000000000000005f82015250565b5f617e7b600183617c33565b9150617e8682617e47565b602082019050919050565b5f6020820190508181035f830152617ea881617e6f565b905091905056fea2646970667358221220eb31de7f908a7f8cbebbc6b51348fd4d880d0c27e742c6767f9e98b14d5c798d64736f6c634300081c0033","linkReferences":{}},"methodIdentifiers":{"POOL_INIT_CODE_HASH()":"dc6fd8ab","SIR_ORACLE()":"9e1cd989","UNISWAP_V3_FACTORY()":"f73e5aab","VAULT()":"411557d1","getAddressAPE(uint48)":"8d0f7844","getReserves(uint48[])":"a0193ec4","getUserBalances(address,uint256,uint256)":"7b6127fa","getVaultStatus((address,address,int8))":"049354b9","priceOfAPE((address,address,int8))":"58c6bdbd","priceOfTEA((address,address,int8))":"58676d0c","quoteBurn(bool,(address,address,int8),uint256)":"a4e59a9f","quoteCollateralToDebtToken(address,address,uint256)":"2f3ccd42","quoteMint(bool,(address,address,int8),uint144)":"7ef3090a","quoteMintWithDebtToken(bool,(address,address,int8),uint256)":"37961f8d"},"id":128}