{"abi":[{"type":"constructor","inputs":[{"name":"uniswapV3Factory","type":"address","internalType":"address"},{"name":"poolInitCodeHash","type":"bytes32","internalType":"bytes32"}],"stateMutability":"nonpayable"},{"type":"function","name":"POOL_INIT_CODE_HASH","inputs":[],"outputs":[{"name":"","type":"bytes32","internalType":"bytes32"}],"stateMutability":"view"},{"type":"function","name":"TWAP_DURATION","inputs":[],"outputs":[{"name":"","type":"uint40","internalType":"uint40"}],"stateMutability":"view"},{"type":"function","name":"UNISWAPV3_FACTORY","inputs":[],"outputs":[{"name":"","type":"address","internalType":"address"}],"stateMutability":"view"},{"type":"function","name":"getPrice","inputs":[{"name":"collateralToken","type":"address","internalType":"address"},{"name":"debtToken","type":"address","internalType":"address"}],"outputs":[{"name":"","type":"int64","internalType":"int64"}],"stateMutability":"view"},{"type":"function","name":"getUniswapFeeTiers","inputs":[],"outputs":[{"name":"uniswapFeeTiers","type":"tuple[]","internalType":"struct SirStructs.UniswapFeeTier[]","components":[{"name":"fee","type":"uint24","internalType":"uint24"},{"name":"tickSpacing","type":"int24","internalType":"int24"}]}],"stateMutability":"view"},{"type":"function","name":"initialize","inputs":[{"name":"tokenA","type":"address","internalType":"address"},{"name":"tokenB","type":"address","internalType":"address"}],"outputs":[],"stateMutability":"nonpayable"},{"type":"function","name":"newUniswapFeeTier","inputs":[{"name":"fee","type":"uint24","internalType":"uint24"}],"outputs":[],"stateMutability":"nonpayable"},{"type":"function","name":"state","inputs":[{"name":"token0","type":"address","internalType":"address"},{"name":"token1","type":"address","internalType":"address"}],"outputs":[{"name":"","type":"tuple","internalType":"struct SirStructs.OracleState","components":[{"name":"tickPriceX42","type":"int64","internalType":"int64"},{"name":"timeStampPrice","type":"uint40","internalType":"uint40"},{"name":"indexFeeTier","type":"uint8","internalType":"uint8"},{"name":"indexFeeTierProbeNext","type":"uint8","internalType":"uint8"},{"name":"timeStampFeeTier","type":"uint40","internalType":"uint40"},{"name":"initialized","type":"bool","internalType":"bool"},{"name":"uniswapFeeTier","type":"tuple","internalType":"struct SirStructs.UniswapFeeTier","components":[{"name":"fee","type":"uint24","internalType":"uint24"},{"name":"tickSpacing","type":"int24","internalType":"int24"}]}]}],"stateMutability":"view"},{"type":"function","name":"uniswapFeeTierAddressOf","inputs":[{"name":"tokenA","type":"address","internalType":"address"},{"name":"tokenB","type":"address","internalType":"address"}],"outputs":[{"name":"","type":"address","internalType":"address"}],"stateMutability":"view"},{"type":"function","name":"uniswapFeeTierOf","inputs":[{"name":"tokenA","type":"address","internalType":"address"},{"name":"tokenB","type":"address","internalType":"address"}],"outputs":[{"name":"","type":"uint24","internalType":"uint24"}],"stateMutability":"view"},{"type":"function","name":"updateOracleState","inputs":[{"name":"collateralToken","type":"address","internalType":"address"},{"name":"debtToken","type":"address","internalType":"address"}],"outputs":[{"name":"tickPriceX42","type":"int64","internalType":"int64"},{"name":"uniswapPoolAddress","type":"address","internalType":"address"}],"stateMutability":"nonpayable"},{"type":"event","name":"OracleFeeTierChanged","inputs":[{"name":"feeTierPrevious","type":"uint24","indexed":false,"internalType":"uint24"},{"name":"feeTierSelected","type":"uint24","indexed":false,"internalType":"uint24"}],"anonymous":false},{"type":"event","name":"OracleInitialized","inputs":[{"name":"token0","type":"address","indexed":true,"internalType":"address"},{"name":"token1","type":"address","indexed":true,"internalType":"address"},{"name":"feeTierSelected","type":"uint24","indexed":false,"internalType":"uint24"},{"name":"avLiquidity","type":"uint136","indexed":false,"internalType":"uint136"},{"name":"period","type":"uint40","indexed":false,"internalType":"uint40"}],"anonymous":false},{"type":"event","name":"PriceUpdated","inputs":[{"name":"token0","type":"address","indexed":true,"internalType":"address"},{"name":"token1","type":"address","indexed":true,"internalType":"address"},{"name":"priceTruncated","type":"bool","indexed":false,"internalType":"bool"},{"name":"priceTickX42","type":"int64","indexed":false,"internalType":"int64"}],"anonymous":false},{"type":"event","name":"UniswapFeeTierAdded","inputs":[{"name":"fee","type":"uint24","indexed":false,"internalType":"uint24"}],"anonymous":false},{"type":"event","name":"UniswapOracleProbed","inputs":[{"name":"fee","type":"uint24","indexed":false,"internalType":"uint24"},{"name":"avLiquidity","type":"uint136","indexed":false,"internalType":"uint136"},{"name":"period","type":"uint40","indexed":false,"internalType":"uint40"},{"name":"cardinalityToIncrease","type":"uint16","indexed":false,"internalType":"uint16"}],"anonymous":false},{"type":"error","name":"NoUniswapPool","inputs":[]},{"type":"error","name":"OracleNotInitialized","inputs":[]},{"type":"error","name":"UniswapFeeTierIndexOutOfBounds","inputs":[]}],"bytecode":{"object":"0x60c060405234801561000f575f5ffd5b5060405161331b38038061331b83398101604081905261002e91610044565b6001600160a01b0390911660805260a05261007b565b5f5f60408385031215610055575f5ffd5b82516001600160a01b038116811461006b575f5ffd5b6020939093015192949293505050565b60805160a0516132636100b85f395f81816101dd0152611a2e01525f81816102120152818161122d015281816119fa015261267401526132635ff3fe608060405234801561000f575f5ffd5b50600436106100c4575f3560e01c8063bbbe310f1161007d578063dc6fd8ab11610058578063dc6fd8ab146101d8578063e2d4624d1461020d578063f3209e0014610259575f5ffd5b8063bbbe310f1461017c578063c7dd5c0a14610191578063ca4bc9f1146101b8575f5ffd5b806379b00adf116100ad57806379b00adf14610124578063879ac8f814610137578063ac41865a14610156575f5ffd5b806304b7ca55146100c8578063485cc9551461010f575b5f5ffd5b6100db6100d636600461286b565b61026c565b6040805160079390930b835273ffffffffffffffffffffffffffffffffffffffff9091166020830152015b60405180910390f35b61012261011d36600461286b565b610b5e565b005b6101226101323660046128a2565b6111ce565b61014061070881565b60405164ffffffffff9091168152602001610106565b61016961016436600461286b565b6113ba565b60405160079190910b8152602001610106565b610184611616565b60405161010691906128c4565b6101a461019f36600461286b565b6117e7565b60405162ffffff9091168152602001610106565b6101cb6101c636600461286b565b611833565b6040516101069190612923565b6101ff7f000000000000000000000000000000000000000000000000000000000000000081565b604051908152602001610106565b6102347f000000000000000000000000000000000000000000000000000000000000000081565b60405173ffffffffffffffffffffffffffffffffffffffff9091168152602001610106565b61023461026736600461286b565b6119b1565b5f5f5f5f61027a8686611a59565b73ffffffffffffffffffffffffffffffffffffffff8083165f90815260208181526040808320938516835292815290829020825160e0810184528154600781900b825264ffffffffff68010000000000000000820481168386015260ff6d010000000000000000000000000083048116848801526e0100000000000000000000000000008304811660608501526f01000000000000000000000000000000830490911660808401527401000000000000000000000000000000000000000090910416151560a08201908152845180860190955260019092015462ffffff811685526301000000900460020b9284019290925260c08201929092529051929450909250906103b3576040517f4eb0db8f00000000000000000000000000000000000000000000000000000000815260040160405180910390fd5b42816020015164ffffffffff1614610af8575f6103d884848460c001515f0151611a9b565b9050805f015194507f2057082503b92cc4e796d9307690c1ae83ab6fb24ce5da475c7af2cb162603af8260c001515f0151826040015183606001518460800151604051610463949392919062ffffff94909416845270ffffffffffffffffffffffffffffffffff92909216602084015264ffffffffff16604083015261ffff16606082015260800190565b60405180910390a1806060015164ffffffffff16600103610502575f815f015173ffffffffffffffffffffffffffffffffffffffff16633850c7bd6040518163ffffffff1660e01b815260040160e060405180830381865afa1580156104cb573d5f5f3e3d5ffd5b505050506040513d601f19601f820116820180604052508101906104ef91906129d7565b5050505060029190910b60208501525050505b5f61050d83836123eb565b90508373ffffffffffffffffffffffffffffffffffffffff168573ffffffffffffffffffffffffffffffffffffffff167f751600799d4232b751da1b16a16cbaa54e27b2069fe5659d8936eb3a3a8efad783865f015160405161057f929190911515825260070b602082015260400190565b60405180910390a364ffffffffff428116602085015260808401516105a891610e109116612a8e565b4210610915575f5f836060015164ffffffffff161180156105d75750836060015160ff16846040015160ff1614155b15610827575f6105ea85606001516124e1565b90505f6105fb8888845f0151611a9b565b82516040808301516060840151608085015192519495507f2057082503b92cc4e796d9307690c1ae83ab6fb24ce5da475c7af2cb162603af9461067a94939062ffffff94909416845270ffffffffffffffffffffffffffffffffff92909216602084015264ffffffffff16604083015261ffff16606082015260800190565b60405180910390a1604081015170ffffffffffffffffffffffffffffffffff161561081b575f6106c5866040015170ffffffffffffffffffffffffffffffffff168860c0015161262b565b90505f6106e9836040015170ffffffffffffffffffffffffffffffffff168561262b565b90508181111561080f57608083015161ffff161561078d57825160808401516040517f32148f6700000000000000000000000000000000000000000000000000000000815261ffff909116600482015273ffffffffffffffffffffffffffffffffffffffff909116906332148f67906024015f604051808303815f87803b158015610772575f5ffd5b505af1158015610784573d5f5f3e3d5ffd5b50505050610814565b61070864ffffffffff16836060015164ffffffffff161061080a57606088015160ff166040808a019190915260c0890151518551825162ffffff9283168152911660208201527f050d6709031a30cdd3bca5de123ee39fa8c5bdefa6b19d8bfdf5491416addd5d910160405180910390a160c0880184905282519a505b610814565b600194505b5050610820565b600192505b505061082b565b5060015b80801561083f57505f836080015161ffff16115b156108cc57825160808401516040517f32148f6700000000000000000000000000000000000000000000000000000000815261ffff909116600482015273ffffffffffffffffffffffffffffffffffffffff909116906332148f67906024015f604051808303815f87803b1580156108b5575f5ffd5b505af11580156108c7573d5f5f3e3d5ffd5b505050505b5f60015460046108dc9190612aa1565b60ff16905080856060015160016108f39190612aa1565b6108fd9190612ae7565b60ff166060860152505064ffffffffff421660808401525b505073ffffffffffffffffffffffffffffffffffffffff8084165f908152602081815260408083209386168352928152908290208351815483860151948601516060870151608088015160a0890151151574010000000000000000000000000000000000000000027fffffffffffffffffffffff00ffffffffffffffffffffffffffffffffffffffff64ffffffffff9283166f0100000000000000000000000000000002167fffffffffffffffffffffff000000000000ffffffffffffffffffffffffffffff60ff9485166e010000000000000000000000000000027fffffffffffffffffffffffffffffffffff00ffffffffffffffffffffffffffff959096166d010000000000000000000000000002949094167fffffffffffffffffffffffffffffffffff0000ffffffffffffffffffffffffff93909a1668010000000000000000027fffffffffffffffffffffffffffffffffffffff0000000000000000000000000090961667ffffffffffffffff9097169690961794909417169690961717949094161792909217825560c0830151805160019093018054919092015162ffffff9081166301000000027fffffffffffffffffffffffffffffffffffffffffffffffffffff000000000000909216931692909217919091179055610b0d565b610b0a83838360c001515f015161266e565b93505b8173ffffffffffffffffffffffffffffffffffffffff168773ffffffffffffffffffffffffffffffffffffffff1614610b47578051610b52565b8051610b5290612b08565b94505050509250929050565b610b688282611a59565b73ffffffffffffffffffffffffffffffffffffffff8083165f90815260208181526040808320938516835292815290829020825160e0810184528154600781900b825264ffffffffff68010000000000000000820481168386015260ff6d010000000000000000000000000083048116848801526e0100000000000000000000000000008304811660608501526f01000000000000000000000000000000830490911660808401527401000000000000000000000000000000000000000090910416151560a08201908152845180860190955260019092015462ffffff811685526301000000900460020b9284019290925260c082019290925290519294509092509015610c7557505050565b5f610c7e611616565b80516040805160a0810182525f80825260208201819052918101829052606081018290526080810182905292935090916040805160a0810182525f808252602082018190529181018290526060810182905260808101919091525f5b84811015610e3457610d098989888481518110610cf957610cf9612b44565b60200260200101515f0151611a9b565b92507f2057082503b92cc4e796d9307690c1ae83ab6fb24ce5da475c7af2cb162603af868281518110610d3e57610d3e612b44565b60200260200101515f0151846040015185606001518660800151604051610da3949392919062ffffff94909416845270ffffffffffffffffffffffffffffffffff92909216602084015264ffffffffff16604083015261ffff16606082015260800190565b60405180910390a1604083015170ffffffffffffffffffffffffffffffffff1615610e2c575f610e10846060015164ffffffffff16856040015170ffffffffffffffffffffffffffffffffff1602888481518110610e0357610e03612b44565b602002602001015161262b565b905084811115610e2a5760ff821660408901529350829150835b505b600101610cda565b50825f03610e6e576040517f94113d8100000000000000000000000000000000000000000000000000000000815260040160405180910390fd5b8360ff16866040015160010160ff1681610e8a57610e8a612aba565b0660ff9081166060880152600160a088015260408701518651879291909116908110610eb857610eb8612b44565b602090810291909101015160c087015264ffffffffff421660808088019190915281015161ffff1615610f6d57805160808201516040517f32148f6700000000000000000000000000000000000000000000000000000000815261ffff909116600482015273ffffffffffffffffffffffffffffffffffffffff909116906332148f67906024015f604051808303815f87803b158015610f56575f5ffd5b505af1158015610f68573d5f5f3e3d5ffd5b505050505b855f5f8a73ffffffffffffffffffffffffffffffffffffffff1673ffffffffffffffffffffffffffffffffffffffff1681526020019081526020015f205f8973ffffffffffffffffffffffffffffffffffffffff1673ffffffffffffffffffffffffffffffffffffffff1681526020019081526020015f205f820151815f015f6101000a81548167ffffffffffffffff021916908360070b67ffffffffffffffff1602179055506020820151815f0160086101000a81548164ffffffffff021916908364ffffffffff1602179055506040820151815f01600d6101000a81548160ff021916908360ff1602179055506060820151815f01600e6101000a81548160ff021916908360ff1602179055506080820151815f01600f6101000a81548164ffffffffff021916908364ffffffffff16021790555060a0820151815f0160146101000a81548160ff02191690831515021790555060c0820151816001015f820151815f015f6101000a81548162ffffff021916908362ffffff1602179055506020820151815f0160036101000a81548162ffffff021916908360020b62ffffff16021790555050509050508673ffffffffffffffffffffffffffffffffffffffff168873ffffffffffffffffffffffffffffffffffffffff167fc358c6596f9b51f4378cf53b7b2a45ddaf005b76af5c24f1e291e4cf1382f0578860c001515f0151846040015185606001516040516111bc9392919062ffffff93909316835270ffffffffffffffffffffffffffffffffff91909116602083015264ffffffffff16604082015260600190565b60405180910390a35050505050505050565b5f8162ffffff16116111de575f5ffd5b5f6111e7611616565b8051909150600981106111f8575f5ffd5b6040517f22afcccb00000000000000000000000000000000000000000000000000000000815262ffffff841660048201525f907f000000000000000000000000000000000000000000000000000000000000000073ffffffffffffffffffffffffffffffffffffffff16906322afcccb90602401602060405180830381865afa158015611287573d5f5f3e3d5ffd5b505050506040513d601f19601f820116820180604052508101906112ab9190612b71565b90505f8160020b136112bb575f5ffd5b5f5b828110156112fe578381815181106112d7576112d7612b44565b60200260200101515f015162ffffff168562ffffff16036112f6575f5ffd5b6001016112bd565b5061130a600483612b8a565b611315906030612b9d565b611320906008612a8e565b60018054601884901b65ffffff0000001662ffffff88161790921b9091177effffffffffffffffffffffffffffffffffffffffffffffffffffffffffff008116825560ff1690611371908290612a8e565b6001805491909117905560405162ffffff861681527f37838f2f499547532188da41cb82201ea74862853547fdaf0da38a33bbfe48219060200160405180910390a15050505050565b5f5f5f6113c78585611a59565b73ffffffffffffffffffffffffffffffffffffffff8083165f90815260208181526040808320938516835292815290829020825160e0810184528154600781900b825264ffffffffff68010000000000000000820481168386015260ff6d010000000000000000000000000083048116848801526e0100000000000000000000000000008304811660608501526f01000000000000000000000000000000830490911660808401527401000000000000000000000000000000000000000090910416151560a08201908152845180860190955260019092015462ffffff811685526301000000900460020b9284019290925260c0820192909252905192945090925090611500576040517f4eb0db8f00000000000000000000000000000000000000000000000000000000815260040160405180910390fd5b42816020015164ffffffffff16146115cb575f61152584848460c001515f0151611a9b565b9050806060015164ffffffffff166001036115be575f815f015173ffffffffffffffffffffffffffffffffffffffff16633850c7bd6040518163ffffffff1660e01b815260040160e060405180830381865afa158015611587573d5f5f3e3d5ffd5b505050506040513d601f19601f820116820180604052508101906115ab91906129d7565b5050505060029190910b60208501525050505b6115c882826123eb565b50505b8173ffffffffffffffffffffffffffffffffffffffff168673ffffffffffffffffffffffffffffffffffffffff161461160557805161160a565b80515f035b93505050505b92915050565b60015460609060ff81166004810167ffffffffffffffff81111561163c5761163c612bb4565b60405190808252806020026020018201604052801561168057816020015b604080518082019091525f808252602082015281526020019060019003908161165a5790505b5092506040518060400160405280606462ffffff168152602001600160020b815250835f815181106116b4576116b4612b44565b602002602001018190525060405180604001604052806101f462ffffff168152602001600a60020b815250836001815181106116f2576116f2612b44565b60200260200101819052506040518060400160405280610bb862ffffff168152602001603c60020b8152508360028151811061173057611730612b44565b6020026020010181905250604051806040016040528061271062ffffff16815260200160c860020b8152508360038151811061176e5761176e612b44565b602090810291909101015280156117e25760089190911c905f5b818110156117e05760405180604001604052808462ffffff168152602001601885901c60020b8152508482600401815181106117c6576117c6612b44565b602090810291909101015260309290921c91600101611788565b505b505090565b5f6117f28383611a59565b73ffffffffffffffffffffffffffffffffffffffff9182165f9081526020818152604080832093909416825291909152206001015462ffffff169392505050565b61187e6040805160e0810182525f8082526020808301829052828401829052606083018290526080830182905260a0830182905283518085019094528184528301529060c082015290565b8173ffffffffffffffffffffffffffffffffffffffff168373ffffffffffffffffffffffffffffffffffffffff16106118b5575f5ffd5b5073ffffffffffffffffffffffffffffffffffffffff9182165f90815260208181526040808320939094168252918252829020825160e0810184528154600781900b825264ffffffffff68010000000000000000820481168386015260ff6d010000000000000000000000000083048116848801526e0100000000000000000000000000008304811660608501526f01000000000000000000000000000000830490911660808401527401000000000000000000000000000000000000000090910416151560a0820152835180850190945260019091015462ffffff811684526301000000900460020b9183019190915260c081019190915290565b5f6119bc8383611a59565b73ffffffffffffffffffffffffffffffffffffffff8083165f90815260208181526040808320938516835292905220600101549194509250611a52907f000000000000000000000000000000000000000000000000000000000000000090611a2c908690869062ffffff166126a6565b7f0000000000000000000000000000000000000000000000000000000000000000612737565b9392505050565b5f5f8273ffffffffffffffffffffffffffffffffffffffff168473ffffffffffffffffffffffffffffffffffffffff161115611a93579192915b509192909150565b6040805160a0810182525f80825260208201819052918101829052606081018290526080810191909152611ad084848461266e565b73ffffffffffffffffffffffffffffffffffffffff168082523b15611a52576040805160028082526060820183525f92602083019080368337019050509050610708815f81518110611b2457611b24612b44565b602002602001019063ffffffff16908163ffffffff16815250505f81600181518110611b5257611b52612b44565b602002602001019063ffffffff16908163ffffffff1681525050606080835f015173ffffffffffffffffffffffffffffffffffffffff1663883bdbfd846040518263ffffffff1660e01b8152600401611bab9190612be1565b5f60405180830381865afa925050508015611c0557506040513d5f823e601f3d9081017fffffffffffffffffffffffffffffffffffffffffffffffffffffffffffffffe0168201604052611c029190810190612d17565b60015b6122d157611c11612de8565b806308c379a0036122c75750611c25612e01565b80611c3057506122c9565b60408051808201909152600381527f4f4c4400000000000000000000000000000000000000000000000000000000006020918201528151908201207fd30c0d219016dd7e5cf2b2c30c4d7c091820fc329f335b57cab26b9ff3384a9e14611c9a5750505050611a52565b5f5f5f875f015173ffffffffffffffffffffffffffffffffffffffff16633850c7bd6040518163ffffffff1660e01b815260040160e060405180830381865afa158015611ce9573d5f5f3e3d5ffd5b505050506040513d601f19601f82011682018060405250810190611d0d91906129d7565b50508c5160408051600180825281830190925294995092975090955073ffffffffffffffffffffffffffffffffffffffff16935063883bdbfd925060208083019080368337019050506040518263ffffffff1660e01b8152600401611d729190612be1565b5f60405180830381865afa158015611d8c573d5f5f3e3d5ffd5b505050506040513d5f823e601f3d9081017fffffffffffffffffffffffffffffffffffffffffffffffffffffffffffffffe0168201604052611dd19190810190612d17565b80965081975050505f865f81518110611dec57611dec612b44565b602002602001015190505f865f81518110611e0957611e09612b44565b60200260200101519050600267ffffffffffffffff811115611e2d57611e2d612bb4565b604051908082528060200260200182016040528015611e56578160200160208202803683370190505b50604080516002808252606082018352929a5091906020830190803683370190505096508188600181518110611e8e57611e8e612b44565b602002602001019060060b908160060b815250508087600181518110611eb657611eb6612b44565b602002602001019073ffffffffffffffffffffffffffffffffffffffff16908173ffffffffffffffffffffffffffffffffffffffff16815250505f5f60018661ffff161115611fb6578b5173ffffffffffffffffffffffffffffffffffffffff1663252c09d787611f288a6001612ec1565b611f329190612edb565b6040517fffffffff0000000000000000000000000000000000000000000000000000000060e084901b16815261ffff9091166004820152602401608060405180830381865afa158015611f87573d5f5f3e3d5ffd5b505050506040513d601f19601f82011682018060405250810190611fab9190612efe565b919650945090925090505b80612060578b516040517f252c09d70000000000000000000000000000000000000000000000000000000081525f600482015273ffffffffffffffffffffffffffffffffffffffff9091169063252c09d790602401608060405180830381865afa158015612026573d5f5f3e3d5ffd5b505050506040513d601f19601f8201168201806040525081019061204a9190612efe565b509095509350915061205d876001612ec1565b95505b5061207163ffffffff821642612b8a565b8a5f8151811061208357612083612b44565b602002602001019063ffffffff16908163ffffffff1681525050895f815181106120af576120af612b44565b602002602001015163ffffffff165f036121a7578a5f015173ffffffffffffffffffffffffffffffffffffffff16631a6865026040518163ffffffff1660e01b8152600401602060405180830381865afa15801561210f573d5f5f3e3d5ffd5b505050506040513d601f19601f820116820180604052508101906121339190612f5b565b6fffffffffffffffffffffffffffffffff1660408c018190525f0361215a57600160408c01525b600160608c0181905261216e81603c612f8a565b6121789190612fa7565b612183906001612ec1565b61218e906001612ec1565b61ffff1660808c015250611a5298505050505050505050565b5f8a5f815181106121ba576121ba612b44565b602002602001015163ffffffff16600161070864ffffffffff168861ffff166121e39190612b9d565b6121ed9190612b8a565b6121f79190612fd0565b612202906001612a8e565b90508461ffff1681111561224657600161221d81603c612f8a565b6122279190612fa7565b612232906001612ec1565b61223c9086612ec1565b61ffff1660808d01525b838a5f8151811061225957612259612b44565b602002602001019060060b908160060b8152505082895f8151811061228057612280612b44565b602002602001019073ffffffffffffffffffffffffffffffffffffffff16908173ffffffffffffffffffffffffffffffffffffffff168152505050505050505050506122d7565b505b3d5f5f3e3d5ffd5b90925090505b805f815181106122e9576122e9612b44565b60200260200101518160018151811061230457612304612b44565b60200260200101516123169190612fe3565b6080845f8151811061232a5761232a612b44565b602002602001015163ffffffff1673ffffffffffffffffffffffffffffffffffffffff16901b61235a919061300f565b70ffffffffffffffffffffffffffffffffff166040850152815182905f9061238457612384612b44565b60200260200101518260018151811061239f5761239f612b44565b60200260200101516123b19190613056565b60060b6020850152825183905f906123cb576123cb612b44565b602090810291909101015163ffffffff1660608501525050509392505050565b5f5f602a836020015160060b901b90506001836060015164ffffffffff1611156124285760608301516124259064ffffffffff168261309b565b90505b836020015164ffffffffff165f0361244657600781900b84526124da565b60208401515f9065040000000000906124669064ffffffffff1642612b8a565b6124709190613102565b855190915061248390829060070b61314d565b8213156124aa5780855f0181815161249b919061316c565b60070b905250600192506124d8565b845160070b6124b9828461314d565b12156124d05780855f0181815161249b91906131b2565b600782900b85525b505b5092915050565b604080518082019091525f80825260208201528160ff165f0361251857505060408051808201909152606481526001602082015290565b8160ff1660010361253e575050604080518082019091526101f48152600a602082015290565b8160ff1660020361256457505060408051808201909152610bb88152603c602082015290565b8160ff1660030361258a57505060408051808201909152612710815260c8602082015290565b60015460ff811661259c816004612a8e565b8460ff16106125d7576040517fd8463cb800000000000000000000000000000000000000000000000000000000815260040160405180910390fd5b6125e26004856131f8565b6125ed906030613211565b6125f8906008612aa1565b6040805180820190915260ff919091169290921c62ffffff8116835260181c60020b60208301525092915050565b919050565b5f816020015162ffffff1660016048845f015162ffffff168661264e9190612b9d565b61265992911b612b8a565b6126639190612fd0565b611a52906001612a8e565b5f61269e7f0000000000000000000000000000000000000000000000000000000000000000611a2c8686866126a6565b949350505050565b604080516060810182525f80825260208201819052918101919091528273ffffffffffffffffffffffffffffffffffffffff168473ffffffffffffffffffffffffffffffffffffffff1611156126fa579192915b506040805160608101825273ffffffffffffffffffffffffffffffffffffffff948516815292909316602083015262ffffff169181019190915290565b5f826020015173ffffffffffffffffffffffffffffffffffffffff16835f015173ffffffffffffffffffffffffffffffffffffffff1610612776575f5ffd5b508151602080840151604094850151855173ffffffffffffffffffffffffffffffffffffffff94851681850152939091168386015262ffffff166060808401919091528451808403820181526080840186528051908301207fff0000000000000000000000000000000000000000000000000000000000000060a085015295901b7fffffffffffffffffffffffffffffffffffffffff0000000000000000000000001660a183015260b582019490945260d5808201929092528251808203909201825260f501909152805191012090565b73ffffffffffffffffffffffffffffffffffffffff81168114612868575f5ffd5b50565b5f5f6040838503121561287c575f5ffd5b823561288781612847565b9150602083013561289781612847565b809150509250929050565b5f602082840312156128b2575f5ffd5b813562ffffff81168114611a52575f5ffd5b602080825282518282018190525f918401906040840190835b8181101561291857612902838551805162ffffff16825260209081015160020b910152565b60209390930192604092909201916001016128dd565b509095945050505050565b5f61010082019050825160070b825264ffffffffff602084015116602083015260ff604084015116604083015260ff606084015116606083015264ffffffffff608084015116608083015260a083015161298160a084018215159052565b5060c08301516124da60c0840182805162ffffff16825260209081015160020b910152565b8051600281900b8114612626575f5ffd5b805161ffff81168114612626575f5ffd5b80518015158114612626575f5ffd5b5f5f5f5f5f5f5f60e0888a0312156129ed575f5ffd5b87516129f881612847565b9650612a06602089016129a6565b9550612a14604089016129b7565b9450612a22606089016129b7565b9350612a30608089016129b7565b925060a088015160ff81168114612a45575f5ffd5b9150612a5360c089016129c8565b905092959891949750929550565b7f4e487b71000000000000000000000000000000000000000000000000000000005f52601160045260245ffd5b8082018082111561161057611610612a61565b60ff818116838216019081111561161057611610612a61565b7f4e487b71000000000000000000000000000000000000000000000000000000005f52601260045260245ffd5b5f60ff831680612af957612af9612aba565b8060ff84160691505092915050565b5f8160070b7fffffffffffffffffffffffffffffffffffffffffffffffff80000000000000008103612b3c57612b3c612a61565b5f0392915050565b7f4e487b71000000000000000000000000000000000000000000000000000000005f52603260045260245ffd5b5f60208284031215612b81575f5ffd5b611a52826129a6565b8181038181111561161057611610612a61565b808202811582820484141761161057611610612a61565b7f4e487b71000000000000000000000000000000000000000000000000000000005f52604160045260245ffd5b602080825282518282018190525f918401906040840190835b8181101561291857835163ffffffff16835260209384019390920191600101612bfa565b7fffffffffffffffffffffffffffffffffffffffffffffffffffffffffffffffe0601f830116810181811067ffffffffffffffff82111715612c6257612c62612bb4565b6040525050565b5f67ffffffffffffffff821115612c8257612c82612bb4565b5060051b60200190565b8051600681900b8114612626575f5ffd5b5f82601f830112612cac575f5ffd5b8151612cb781612c69565b604051612cc48282612c1e565b80915082815260208101915060208360051b860101925085831115612ce7575f5ffd5b602085015b83811015612d0d578051612cff81612847565b835260209283019201612cec565b5095945050505050565b5f5f60408385031215612d28575f5ffd5b825167ffffffffffffffff811115612d3e575f5ffd5b8301601f81018513612d4e575f5ffd5b8051612d5981612c69565b604051612d668282612c1e565b80915082815260208101915060208360051b850101925087831115612d89575f5ffd5b6020840193505b82841015612db257612da184612c8c565b825260209384019390910190612d90565b80955050505050602083015167ffffffffffffffff811115612dd2575f5ffd5b612dde85828601612c9d565b9150509250929050565b5f60033d1115612dfe5760045f5f3e505f5160e01c5b90565b5f60443d1015612e0e5790565b6040517ffffffffffffffffffffffffffffffffffffffffffffffffffffffffffffffffc3d016004823e80513d602482011167ffffffffffffffff82111715612e5657505090565b808201805167ffffffffffffffff811115612e72575050505090565b7ffffffffffffffffffffffffffffffffffffffffffffffffffffffffffffffffc3d8501016020828401011115612eaa575050505090565b612eb960208285010185612c1e565b509392505050565b61ffff818116838216019081111561161057611610612a61565b5f61ffff831680612eee57612eee612aba565b8061ffff84160691505092915050565b5f5f5f5f60808587031215612f11575f5ffd5b845163ffffffff81168114612f24575f5ffd5b9350612f3260208601612c8c565b92506040850151612f4281612847565b9150612f50606086016129c8565b905092959194509250565b5f60208284031215612f6b575f5ffd5b81516fffffffffffffffffffffffffffffffff81168114611a52575f5ffd5b64ffffffffff828116828216039081111561161057611610612a61565b5f64ffffffffff831680612fbd57612fbd612aba565b8064ffffffffff84160491505092915050565b5f82612fde57612fde612aba565b500490565b73ffffffffffffffffffffffffffffffffffffffff828116828216039081111561161057611610612a61565b5f73ffffffffffffffffffffffffffffffffffffffff83168061303457613034612aba565b8073ffffffffffffffffffffffffffffffffffffffff84160491505092915050565b600682810b9082900b037fffffffffffffffffffffffffffffffffffffffffffffffffff800000000000008112667fffffffffffff8213171561161057611610612a61565b5f826130a9576130a9612aba565b7fffffffffffffffffffffffffffffffffffffffffffffffffffffffffffffffff83147f8000000000000000000000000000000000000000000000000000000000000000831416156130fd576130fd612a61565b500590565b8082025f82127f80000000000000000000000000000000000000000000000000000000000000008414161561313957613139612a61565b818105831482151761161057611610612a61565b8082018281125f8312801582168215821617156124d8576124d8612a61565b600781810b9083900b01677fffffffffffffff81137fffffffffffffffffffffffffffffffffffffffffffffffff80000000000000008212171561161057611610612a61565b600782810b9082900b037fffffffffffffffffffffffffffffffffffffffffffffffff80000000000000008112677fffffffffffffff8213171561161057611610612a61565b60ff828116828216039081111561161057611610612a61565b60ff81811683821602908116908181146124da576124da612a6156fea26469706673582212203489fa0a020dd73aa40fbaab50f8d306d55765ca068dfa2a011e8aa7a3bf8d5a64736f6c634300081c0033","linkReferences":{}},"methodIdentifiers":{"POOL_INIT_CODE_HASH()":"dc6fd8ab","TWAP_DURATION()":"879ac8f8","UNISWAPV3_FACTORY()":"e2d4624d","getPrice(address,address)":"ac41865a","getUniswapFeeTiers()":"bbbe310f","initialize(address,address)":"485cc955","newUniswapFeeTier(uint24)":"79b00adf","state(address,address)":"ca4bc9f1","uniswapFeeTierAddressOf(address,address)":"f3209e00","uniswapFeeTierOf(address,address)":"c7dd5c0a","updateOracleState(address,address)":"04b7ca55"},"id":109}